S00C0000554152542E73726563DC
S11300000C9434000C9451000C9451000C94510045
S11300100C9451000C9451000C9451000C94510018
S11300200C9451000C9451000C9451000C94510008
S11300300C9451000C944C010C9451000C945100FC
S11300400C9451000C9451000C946F020C949D027A
S11300500C9451000C9461010C9451000C945100C7
S11300600C9451000C94510011241FBECFEFD8E022
S1130070DEBFCDBF11E0A0E0B1E0E6E7F6E002C0EC
S113008005900D92AE34B107D9F721E0AEE4B1E0AA
S113009001C01D92A339B207E1F70E94F6000C9447
S11300A039030C940000299A85E08A95F1F7000041
S11300B029980895CF93C82F662311F0289A01C078
S11300C02898549A559A569A579A5F985E985D98CC
S11300D05C98CC230CF45F9AC6FD5E9AC5FD5D9ACC
S11300E0C4FD5C9A0E9453005F985E985D985C988A
S11300F0C3FD5F9AC2FD5E9AC1FD5D9AC0FD5C9A24
S11301000E9453005C9A5D9A5E9A5F9A87EB9BE02B
S11301100197F1F700C00000CF91089560E00E94BC
S11301205A000895611104C080580E948E000895F9
S113013080540E948E00089581E00E948E000895EC
S113014061E00E945A000895CF93DF93EC01219659
S1130150FC018081882329F00E94A00089918111EB
S1130160FBCFDF91CF910895CF93C82F209A559A52
S1130170219A549A559A569A579A8FEF99EF019764
S1130180F1F700C000005D9A5C9A0E9453008FE171
S11301909EE40197F1F700C000000E9453008FEF26
S11301A090E00197F1F700C000000E9453008FEF28
S11301B090E00197F1F700C000005C980E945300A2
S11301C08FEF90E00197F1F700C0000088E20E94F1
S11301D08E0088E00E948E000E949C0086E00E94AF
S11301E08E008C2F0E948E00CF9108958CE00E9487
S11301F0B40060E081E00E94920080E091E00E94FF
S1130200A40061E083E00E94920087E091E00E94F4
S1130210A40060E088E00E9492008CE091E00E94DB
S1130220A40060E08DE00E9492008EE091E00E94C4
S1130230A40061E088E00E94920080E191E00E94C5
S1130240A40061E08EE00E94920082E191E00E94AD
S1130250A400ECE7F0E08081806480838081807F6B
S11302608083EAE7F0E080818068808380818F600A
S11302708083E1E8F0E080818B7F808380818360EC
S11302808083EFE6F0E080818160808387E690E000
S11302900E94C7027894FFCF1F920F920FB60F925D
S11302A011248F93EF93FF93EAE7F0E08081806459
S11302B08083FF91EF918F910F900FBE0F901F904D
S11302C018951F920F920FB60F921124FF920F935D
S11302D01F932F933F934F935F936F937F938F93CA
S11302E09F93AF93BF93EF93FF93CF93DF9300D08C
S11302F000D0CDB7DEB780E390E39A8389839C83F3
S11303008B8300917800109179004AE0BE016F5F01
S11303107F4FC8010E94040360E088E00E949200BD
S113032089E291E00E94A40060E088E00E949200CB
S1130330CE0101960E94A40084E191E00E94F5029E
S1130340CE0101960E94F50285E291E00E94F50239
S113035060E08DE00E9492008AE291E00E94A40095
S113036060E08DE00E94920040E1BE016F5F7F4F2C
S1130370C8010E940403CE0101960E94A400023326
S1130380110588F461E088E00E94920087E291E020
S11303900E94A40061E088E00E9492008EE291E055
S11303A00E94A4006BC0C801C2978837910588F4E5
S11303B061E088E00E94920087E291E00E94A4003C
S11303C061E088E00E94920084E391E00E94A4002E
S11303D055C0C8018A5A9109843B910588F461E0AB
S11303E088E00E94920087E291E00E94A40061E00C
S11303F088E00E94920087E391E00E94A4003EC03E
S1130400C8018E5591408639910588F461E088E0F1
S11304100E94920087E291E00E94A40061E088E0DB
S11304200E9492008CE391E00E94A40027C0C801BE
S1130430845F91408C32914088F461E088E00E94AE
S1130440920087E291E00E94A40061E088E00E94AB
S1130450920081E491E00E94A40010C061E088E071
S11304600E94920087E291E00E94A40061E088E08B
S11304700E94920088E491E00E94A40080E1F12CA3
S1130480902F9170F926169507958150C9F761E070
S11304908FE00E94920081E0F81204C081E30E9480
S11304A0A00003C080E30E94A0000F900F900F9063
S11304B00F90DF91CF91FF91EF91BF91AF919F91F9
S11304C08F917F916F915F914F913F912F911F91E8
S11304D00F91FF900F900FBE0F901F9018951F92D1
S11304E00F920FB60F9211242F938F939F93EF9334
S11304F0FF938091C0002091C6008C71E09150015F
S1130500EF5FEF7190914F01E91739F0E0935001DB
S1130510F0E0ED5AFE4F208301C082E090914E013D
S1130520892B80934E01FF91EF919F918F912F9191
S11305300F900FBE0F901F9018951F920F920FB639
S11305400F9211248F939F93EF93FF9390915201F5
S113055080915101981769F0E0915101EF5FEF71BB
S1130560E0935101F0E0ED58FE4F80818093C60086
S113057005C0E1ECF0E080818F7D8083FF91EF91F5
S11305809F918F910F900FBE0F901F90189510920E
S11305905201109251011092500110924F0199236F
S11305A01CF422E02093C00090789093C5008093BF
S11305B0C40088E98093C10086E08093C200089556
S11305C0209152012F5F2F71909151012917E1F36E
S11305D0E22FF0E0ED58FE4F808320935201E1ECCE
S11305E0F0E08081806280830895CF93DF93EC01F3
S11305F08881882331F021960E94E002899181113B
S1130600FBCFDF91CF910895BB274A3031F4992372
S113061022F4BDE2909581959F4F0C941003BB2763
S1130620FB015527AA27880F991FAA1FA41710F0AA
S1130630A41B83955051B9F7A05DAA3308F0A95DB6
S1130640A193009779F7B111B1931192CB010C9456
S11306502903DC01FC01672F71917723E1F73297BD
S113066004C07C916D9370836291AE17BF07C8F389
S10906700895F894FFCF89
S113067676616C75653A006B65793A0061006200D3
S113068663005000427574746F6E207072657373E4
S113069665643A20000A00202020202020005269A8
S11306A667687400557000446F776E004C65667415
S11106B60053656C656374004E6F6E65000042
S9030000FC
