S0110000707573685F6C6564732E737265634C
S11300000C9434000C943E000C943E000C943E007E
S11300100C943E000C943E000C943E000C943E0064
S11300200C943E000C943E000C943E000C943E0054
S11300300C943E000C943E000C943E000C943E0044
S11300400C943E000C943E000C943E000C943E0034
S11300500C943E000C943E000C943E000C943E0024
S11300600C943E000C943E0011241FBECFEFD8E048
S1130070DEBFCDBF0E9440000C945B000C940000D6
S1130080259A2D98389A409884B184B9589A20E2D8
S113009091E04899FECF85B1822785B988B1892737
S11300A088B93FEF49E688E1315040408040E1F7AC
S10D00B000C00000EECFF894FFCF6B
S9030000FC
