S00B00004C43442E7372656346
S11300000C9434000C9451000C9451000C94510045
S11300100C9451000C9451000C9451000C94510018
S11300200C9451000C94B9010C9451000C9451009F
S11300300C9451000C9451000C9451000C945100F8
S11300400C9473020C9451000C9451000C945100C4
S11300500C9451000C9451000C9451000C945100D8
S11300600C9451000C94510011241FBECFEFD8E022
S1130070DEBFCDBF11E0A0E0B1E0EAE2F6E002C0ED
S113008005900D92A233B107D9F721E0A2E3B1E0C4
S113009001C01D92A933B207E1F70E94FA000C9443
S11300A013030C940000299A85E08A95F1F7000067
S11300B029980895CF93C82F662311F0289A01C078
S11300C02898549A559A569A579A5F985E985D98CC
S11300D05C98CC230CF45F9AC6FD5E9AC5FD5D9ACC
S11300E0C4FD5C9A0E9453005F985E985D985C988A
S11300F0C3FD5F9AC2FD5E9AC1FD5D9AC0FD5C9A24
S11301000E9453005C9A5D9A5E9A5F9A87EB9BE02B
S11301100197F1F700C00000CF91089560E00E94BC
S11301205A00089561E00E945A000895611104C0C4
S113013080580E948E00089580540E948E00089575
S113014081E00E948E00089561E00E945A000895A3
S1130150CF93DF93EC012196FC018081882329F061
S11301600E94A40089918111FBCFDF91CF91089562
S1130170CF93C82F209A559A219A549A559A569AF1
S1130180579A8FEF99EF0197F1F700C000005D9A3D
S11301905C9A0E9453008FE19EE40197F1F700C03E
S11301A000000E9453008FEF90E00197F1F700C028
S11301B000000E9453008FEF90E00197F1F700C018
S11301C000005C980E9453008FEF90E00197F1F7D4
S11301D000C0000088E20E948E0088E00E948E0029
S11301E00E94A00086E00E948E008C2F0E948E0048
S11301F0CF910895CF93DF93CDB7DEB7A8970FB60D
S1130200F894DEBF0FBECDBF88E0E1E0F1E0DE018F
S1130210119601900D928A95E1F788E0E9E0F1E00A
S1130220DE01199601900D928A95E1F788E0E1E1EB
S1130230F1E0DE01519601900D928A95E1F788E094
S1130240E9E1F1E0DE01599601900D928A95E1F71A
S113025088E0E1E2F1E0DE01919601900D928A9549
S1130260E1F78CE00E94B80080E40E948E008E01C9
S11302700F5F1F4F7E0189E0E80EF11CF8018191A8
S11302808F010E949200E016F106C1F78E01075F0C
S11302901F4F7E01F1E1EF0EF11CF80181918F01F6
S11302A00E949200E016F106C1F78E010F5E1F4F07
S11302B07E01F9E1EF0EF11CF80181918F010E949A
S11302C09200E016F106C1F78E01075E1F4F7E0112
S11302D0F1E2EF0EF11CF80181918F010E9492006E
S11302E0E016F106C1F78E010F5D1F4F7E01F9E2A2
S11302F0EF0EF11CF80181918F010E9492000E15FE
S11303001F05C1F780E80E948E0060E081E00E9432
S1130310960089E291E00E94A80060E08BE00E94D0
S1130320960081E60E94A40061E081E00E949600AC
S113033082E60E94A40061E08BE00E94960083E6BE
S11303400E94A400E0E7F0E0808181608083E1EB1B
S1130350F0E0808187608083EEE6F0E08081816058
S1130360808385B58D7F85BD85B5856085BD789491
S1130370FFCF1F920F920FB60F9211240F931F936A
S11303802F933F934F935F936F937F938F939F9399
S1130390AF93BF93EF93FF93CF93DF9300D0CDB789
S11303A0DEB780E290E29A838983809138018F5F7F
S11303B0863018F4809338017FC010923801809100
S11303C03701893020F48F5F8093370107C0809113
S11303D036018F5F80933601109237018091360188
S11303E08C3338F010923601809135018F5F809301
S11303F03501809135018C3310F01092350160E0A5
S113040081E00E949600809135018A3038F480E3BF
S11304100E94A40060E082E00E9496008091350171
S11304204AE0BE016F5F7F4F90E00E94DE02CE0182
S113043001960E94A80060E084E00E9496008091EA
S113044036018A3038F480E30E94A40060E085E03D
S11304500E949600809136014AE0BE016F5F7F4F93
S113046090E00E94DE02CE0101960E94A80060E0A6
S113047087E00E949600809137014AE0BE016F5FD9
S11304807F4F90E00E94DE02CE0101960E94A800F8
S113049000913601009F8001112460E08BE00E94EE
S11304A096004AE0BE016F5F7F4FC8010E94DE02E2
S11304B0CE0101960E94A8000F900F90DF91CF917A
S11304C0FF91EF91BF91AF919F918F917F916F9128
S11304D05F914F913F912F911F910F910F900FBEFC
S11304E00F901F9018951F920F920FB60F92112420
S11304F02F933F934F935F936F937F938F939F9328
S1130500AF93BF93CF93EF93FF93909134019F5F89
S1130510909334018091000144E1849F900111245F
S113052040E1949F201931091124332394F48F5FFF
S11305308093000180913301843020F48F5F809395
S1130540330107C010923301809132018F5F809391
S11305503201809132018A3010F49C33A8F0109259
S1130560320110923301C0E0CF5F61E08C2F0E9412
S113057096008AE00E94A400CA30B1F710923401B8
S113058081E08093000108C061E08F5F0E949600C3
S1130590809133010E94A400FF91EF91CF91BF910C
S11305A0AF919F918F917F916F915F914F913F9107
S11305B02F910F900FBE0F901F901895BB274A30B4
S11305C031F4992322F4BDE2909581959F4F0C94C8
S11305D0EA02BB27FB015527AA27880F991FAA1FE8
S11305E0A41710F0A41B83955051B9F7A05DAA334A
S11305F008F0A95DA193009779F7B111B193119215
S1130600CB010C940303DC01FC01672F7191772368
S1130610E1F7329704C07C916D9370836291AE17B9
S10D0620BF07C8F30895F894FFCF54
S113062A0110101010101010101818181818181893
S113063A181C1C1C1C1C1C1C1C1E1E1E1E1E1E1EE2
S113064A1E1F1F1F1F1F1F1F1F30303A30302E302E
S105065A00009A
S9030000FC
