S00B00004C43442E7372656346
S11300000C9434000C9451000C9451000C94510045
S11300100C9451000C9451000C9451000C94510018
S11300200C9451000C94D1010C9451000C94510087
S11300300C9451000C9451000C9451000C945100F8
S11300400C948B020C9451000C9451000C945100AC
S11300500C9451000C9451000C9451000C945100D8
S11300600C9451000C94510011241FBECFEFD8E022
S1130070DEBFCDBF11E0A0E0B1E0EAE5F6E002C0EA
S113008005900D92AA33B107D9F721E0AAE3B1E0B4
S113009001C01D92A134B207E1F70E94FA000C944A
S11300A02B030C940000299A85E08A95F1F700004F
S11300B029980895CF93C82F662311F0289A01C078
S11300C02898549A559A569A579A5F985E985D98CC
S11300D05C98CC230CF45F9AC6FD5E9AC5FD5D9ACC
S11300E0C4FD5C9A0E9453005F985E985D985C988A
S11300F0C3FD5F9AC2FD5E9AC1FD5D9AC0FD5C9A24
S11301000E9453005C9A5D9A5E9A5F9A87EB9BE02B
S11301100197F1F700C00000CF91089560E00E94BC
S11301205A00089561E00E945A000895611104C0C4
S113013080580E948E00089580540E948E00089575
S113014081E00E948E00089561E00E945A000895A3
S1130150CF93DF93EC012196FC018081882329F061
S11301600E94A40089918111FBCFDF91CF91089562
S1130170CF93C82F209A559A219A549A559A569AF1
S1130180579A8FEF99EF0197F1F700C000005D9A3D
S11301905C9A0E9453008FE19EE40197F1F700C03E
S11301A000000E9453008FEF90E00197F1F700C028
S11301B000000E9453008FEF90E00197F1F700C018
S11301C000005C980E9453008FEF90E00197F1F7D4
S11301D000C0000088E20E948E0088E00E948E0029
S11301E00E94A00086E00E948E008C2F0E948E0048
S11301F0CF910895CF93DF93CDB7DEB7E0970FB6D5
S1130200F894DEBF0FBECDBF88E0E1E0F1E0DE018F
S1130210119601900D928A95E1F788E0E9E0F1E00A
S1130220DE01199601900D928A95E1F788E0E1E1EB
S1130230F1E0DE01519601900D928A95E1F788E094
S1130240E9E1F1E0DE01599601900D928A95E1F71A
S113025088E0E1E2F1E0DE01919601900D928A9549
S1130260E1F788E0E9E2F1E0DE01999601900D9270
S11302708A95E1F78CE00E94B80080E40E948E0029
S11302808E010F5F1F4F7E0189E0E80EF11CF8011B
S113029081918F010E949200E016F106C1F78E0150
S11302A0075F1F4F7E01F1E1EF0EF11CF801819110
S11302B08F010E949200E016F106C1F78E010F5ED5
S11302C01F4F7E01F9E1EF0EF11CF80181918F01BE
S11302D00E949200E016F106C1F78E01075E1F4FDF
S11302E07E01F1E2EF0EF11CF80181918F010E9471
S11302F09200E016F106C1F78E010F5D1F4F7E01DB
S1130300F9E2EF0EF11CF80181918F010E94920035
S1130310E016F106C1F78E01075D1F4F7E01F1E380
S1130320EF0EF11CF80181918F010E949200E016FA
S1130330F106C1F780E80E948E0060E081E00E942F
S1130340960081E391E00E94A80060E08BE00E94A7
S1130350960081E60E94A40061E081E00E9496007C
S113036082E60E94A40061E08BE00E94960085E092
S11303700E94A400E0E7F0E0808181608083E1EBEB
S1130380F0E0808187608083EEE6F0E08081816028
S1130390808385B58D7F85BD85B5856085BD789461
S11303A0FFCF1F920F920FB60F9211240F931F933A
S11303B02F933F934F935F936F937F938F939F9369
S11303C0AF93BF93EF93FF93CF93DF9300D0CDB759
S11303D0DEB780E290E29A838983809140018F5F47
S11303E0863018F4809340017FC0109240018091C0
S11303F03F01893020F48F5F80933F0107C08091D3
S11304003E018F5F80933E0110923F0180913E0137
S11304108C3338F010923E0180913D018F5F8093C0
S11304203D0180913D018C3310F010923D0160E05C
S113043081E00E94960080913D018A3038F480E387
S11304400E94A40060E082E00E94960080913D0139
S11304504AE0BE016F5F7F4F90E00E94F602CE013A
S113046001960E94A80060E084E00E9496008091BA
S11304703E018A3038F480E30E94A40060E085E005
S11304800E94960080913E014AE0BE016F5F7F4F5B
S113049090E00E94F602CE0101960E94A80060E05E
S11304A087E00E94960080913F014AE0BE016F5FA1
S11304B07F4F90E00E94F602CE0101960E94A800B0
S11304C000913E01009F8001112460E08BE00E94B6
S11304D096004AE0BE016F5F7F4FC8010E94F6029A
S11304E0CE0101960E94A8000F900F90DF91CF914A
S11304F0FF91EF91BF91AF919F918F917F916F91F8
S11305005F914F913F912F911F910F910F900FBECB
S11305100F901F9018951F920F920FB60F921124EF
S11305202F933F934F935F936F937F938F939F93F7
S1130530AF93BF93CF93EF93FF9390913C019F5F51
S113054090933C018091000144E1849F9001112427
S113055040E1949F201931091124332394F48F5FCF
S11305608093000180913B01843020F48F5F80935D
S11305703B0107C010923B0180913A018F5F809349
S11305803A0180913A018A3010F49C33A8F0109219
S11305903A0110923B01C0E0CF5F61E08C2F0E94D2
S11305A096008AE00E94A400CA30B1F710923C0180
S11305B081E08093000108C061E08F5F0E94960093
S11305C080913B010E94A400FF91EF91CF91BF91D4
S11305D0AF919F918F917F916F915F914F913F91D7
S11305E02F910F900FBE0F901F901895BB274A3084
S11305F031F4992322F4BDE2909581959F4F0C9498
S11306000203BB27FB015527AA27880F991FAA1F9E
S1130610A41710F0A41B83955051B9F7A05DAA3319
S113062008F0A95DA193009779F7B111B1931192E4
S1130630CB010C941B03DC01FC01672F7191772320
S1130640E1F7329704C07C916D9370836291AE1789
S10D0650BF07C8F30895F894FFCF24
S113065A0110101010101010101818181818181863
S113066A181C1C1C1C1C1C1C1C1E1E1E1E1E1E1EB2
S113067A1E1F1F1F1F1F1F1F1F000E1F1A1C1E0FC6
S10D068A0030303A30302E3000000A
S9030000FC
