S013000050726F6A6563745F4441432E7372656313
S11300000C9446000C9463000C9463000C946300FD
S11300100C9463000C9463000C9463000C946300D0
S11300200C9463000C9443030C9463000C946300DD
S11300300C9463000C9463000C9463000C946300B0
S11300400C9408010C9463000C94C2070C94F00700
S11300500C9463000C9463000C9463000C94630090
S11300600C9463000C946300550451044C0447043D
S113007042043D04380433042E049906A506AD0653
S1130080B506BD06C506CD06D906E50611241FBE74
S1130090CFEFD8E0DEBFCDBF14E0A0E0B1E0E8E5EB
S11300A0F5E102C005900D92AA36B107D9F728E010
S11300B0AAE6B4E001C01D92A53AB207E1F70E9496
S11300C036020C94AA0A0C9400005B9A85E08A9587
S11300D0F1F700005B980895CF93C82F662311F0C1
S11300E05A9A01C05A98549A559A569A579A5F98B0
S11300F05E985D985C98CC230CF45F9AC6FD5E9A7A
S1130100C5FD5D9AC4FD5C9A0E9465005F985E9887
S11301105D985C98C3FD5F9AC2FD5E9AC1FD5D9ACD
S1130120C0FD5C9A0E9465005C9A5D9A5E9A5F9A33
S113013087EB9BE00197F1F700C00000CF91089591
S113014060E00E946C000895611104C080580E9410
S1130150A000089580540E94A000089581E00E94A8
S1130160A000089561E00E946C000895CF93DF938E
S1130170EC012196FC018081882329F00E94B200C1
S113018089918111FBCFDF91CF910895CF93C82F2F
S1130190529A559A539A549A559A569A579A8FEF57
S11301A099EF0197F1F700C000005D9A5C9A0E94F4
S11301B065008FE19EE40197F1F700C000000E9402
S11301C065008FEF90E00197F1F700C000000E94F6
S11301D065008FEF90E00197F1F700C000005C9894
S11301E00E9465008FEF90E00197F1F700C00000D6
S11301F088E20E94A00088E00E94A0000E94AE0055
S113020086E00E94A0008C2F0E94A000CF91089548
S11302101F920F920FB60F9211242F933F938F9337
S11302209F93EF93FF932091720430917304809114
S113023074049091750401972817390738F42F5FD7
S11302403F4F309373042093720408C010927304D8
S1130250109272041092240110922401E09172040D
S1130260F0917304E354FB4F808185B9FF91EF91C2
S11302709F918F913F912F910F900FBE0F901F90E0
S11302801895CF92DF92EF92FF92CF93609106017F
S11302907091070180E090E00E9465099B01AC0128
S11302A060E070E080E89FE30E94C40820910101AF
S11302B03091020140910301509104010E94C4084D
S11302C00E9436097093750460937404693E734008
S11302D0E8F1C0916A04C330D8F5CF5F01C0C82FDC
S11302E0EC2FF0E0EE0FFF1FEE0FFF1FE35FFE4F5A
S11302F0C080D180E280F380609106017091070193
S113030080E090E00E9465099B01AC0160E070E030
S113031080E89FE30E94C408A70196010E94C408D4
S11303200E943609693E83E0780718F5C0936A0491
S1130330C0920101D0920201E0920301F092040103
S1130340709375046093740421E003C020E001C03D
S113035020E080917404909175048F3F910508F01A
S113036063C0C0916A04CC2309F466C02223B1F0AF
S11303705BC081E08C0F843009F0B1CFC0936A0474
S1130380C0920101D0920201E0920301F0920401B3
S1130390709375046093740421E0DBCFC150EC2F9B
S11303A0F0E0EE0FFF1FEE0FFF1FE35FFE4FC08074
S11303B0D180E280F380609106017091070180E0B2
S11303C090E00E9465099B01AC0160E070E080E868
S11303D09FE30E94C408A70196010E94C4080E94DA
S11303E036096F3F710578F0C0936A04C092010129
S11303F0D0920201E0920301F0920401709375041B
S11304006093740411C0C111C9CF10926A04C092E0
S11304100101D0920201E0920301F0920401709371
S113042075046093740408C080916A04813059F0A3
S113043018F0823079F014C085B5897F85BD85B503
S1130440816085BD0DC085B58A7F85BD85B5826017
S113045085BD06C085B58B7F85BD85B5836085BDAB
S1130460CF91FF90EF90DF90CF9008950E944101CB
S11304708CE00E94C60087E690E00E941A08409132
S1130480050160910601709107018BE00E94370716
S11304908FEF8AB984B987E087B9E090050140916C
S11304A00601509107010091010110910201209170
S11304B003013091040161E08DEB94E00E94E603B6
S11304C085B5897F85BD85B5816085BDEEE6F0E0A3
S11304D0808181608083E1EBF0E080818C7F808388
S11304E0808184608083E0E7F0E0808181608083A4
S11304F07894FFCFEF920F931F93CF93809176045C
S113050090917704009709F496C080FD9AC020E08A
S113051001C02C2FC1E0C20F9695879580FFF9CFBB
S11305209093770480937604CC2309F490C02B7FB6
S11305302330B1F591C0C0E080910601909107018C
S1130540803D974080F580910601909107010196C6
S1130550909307018093060126C0C83021F580914D
S11305600601909107018536910550F180910601AD
S1130570909107010197909307018093060120C091
S1130580809105018F5F809305016CC08091050106
S11305908230B0F08091050181508093050110C034
S11305A0C09300010DC0C43059F480916C048430B0
S11305B079F190916D0481E0892780936D0428C0BE
S11305C00E944101E090050140910601509107010C
S11305D00091010110910201209103013091040165
S11305E0609100018DEB94E00E94E60340910501C7
S11305F06091060170910701809100010E94370704
S11306006091060170910701809100010E94F50636
S11306109091000180916C04981308C080916B0440
S1130620883C20F48F5F80936B0428C010926B0485
S1130630C0936C0423C010926B048FEF80936C04FE
S11306401DC080916D04882309F475CF11C0809179
S11306506D0481110DC070CF80916D04882309F45D
S11306607CCF02C0C0E0ACCFC83009F48FCF9BCFA1
S113067080910501853008F483CFF4CFCF911F9189
S11306800F91EF9008951F920F920FB60F921124BD
S11306902F933F934F935F936F937F938F939F9386
S11306A0AF93BF93EF93FF93209170043091710443
S11306B080916F048F5F80936F04833080F488B1DE
S11306C0887F88B948B181E090E000906F0402C04F
S11306D0880F991F0A94E2F7842B88B911C01092ED
S11306E06F0488B1887F88B948B181E090E00090B8
S11306F06F0402C0880F991F0A94E2F7842B88B90B
S113070080916F048130C9F018F0823039F137C01C
S113071086B1887790E04091700450917104407FD5
S1130720969587959695879596958795842B952B81
S1130730909371048093700422C086B1887790E00E
S113074040917004509171044F70880F991F842B4D
S1130750952B909371048093700411C046B148772F
S11307608091700490917104907F60E2469FA00193
S11307701124842B952B90937104809370048091A1
S11307806E048F5F80936E04833378F080917004DD
S1130790909171042817390741F43093770420931A
S11307A0760410926E040E947A02FF91EF91BF9139
S11307B0AF919F918F917F916F915F914F913F91F5
S11307C02F910F900FBE0F901F9018954F925F922C
S11307D06F927F928F929F92AF92BF92CF92DF924D
S11307E0EF92FF920F931F93CF93DF9300D000D02B
S11307F000D0CDB7DEB79E838D8348015901C62E44
S1130800D12C61E0C61AD108BA0180E090E00E94C0
S113081065099B01AC0160E070E080E89FE30E9401
S1130820C408A50194010E94C4080E9436098B01E2
S1130830093E73E0170710F008EE13E0F601E25AE0
S1130840FB4FE0818E2F90E0FC013197E930F105F8
S113085008F021C2EC5CFF4F0C94600A01151105ED
S113086009F0BEC118C20115110509F08BC113C2EC
S11308700115110509F04AC10EC20115110509F04F
S113088016C109C20115110509F0B7C004C201154A
S1130890110509F098C0FFC10115110509F061C0E7
S11308A0FAC10115110599F5F6C10115110509F4EF
S11308B0F2C1E12CF12C4801A12CB12CB70180E04C
S11308C090E00E9465092B013C01C501B4010E941E
S11308D065099B01AC01C301B2010E94C40820E078
S11308E030E84FEF53E40E94F3090E943609FB01FC
S11308F0E25AFD4F8081AD81BE818D93BE83AD836D
S1130900BFEFEB1AFB0AE016F106C1F6C4C1E12CF5
S1130910F12C4801A12CB12CB70180E090E00E9499
S113092065092B013C01C501B4010E9465099B01C5
S1130930AC01C301B2010E94C40820E030E04FE7DB
S113094053E40E94F3090E943609ED81FE8161930C
S1130950FE83ED83FFEFEF1AFF0AE016F106E1F6DE
S11309609AC1E12CF12C4801A12CB12CB70180E0F3
S113097090E00E9465092B013C01C501B4010E946D
S113098065099B01AC01C301B2010E94C40820E0C7
S113099030E04FE753E40E94F3099B01AC0160E0AF
S11309A070E08FE793E40E9457080E943609AD81F6
S11309B0BE816D93BE83AD83BFEFEB1AFB0AE016D5
S11309C0F106A1F668C198013695279580E090E07C
S11309D04FEF8217930720F4ED81FE81108203C04C
S11309E0AD81BE814C93ED81FE813196FE83ED8312
S11309F001968017910769F74EC16801D694C79490
S1130A00E12CF12C2801612C712CEC14FD04E8F488
S1130A10B70180E090E00E9465094B015C01C301CD
S1130A20B2010E9465099B01AC01C501B4010E9499
S1130A30C40820E030E04FE753E40E94F3090E9429
S1130A403609AD81BE816C9324C0B70180E090E08B
S1130A500E9465094B015C01C301B2010E94650952
S1130A609B01AC01C501B4010E94C40820E030E040
S1130A704FE753E40E94F3099B01AC0160E070E08E
S1130A808FE793E40E9457080E943609ED81FE81A6
S1130A9060836D817E816F5F7F4F7E836D837FEF87
S1130AA0E71AF70AE016F10609F0AFCFF4C0E12C1B
S1130AB0F12C4801A12CB12CB70180E090E00E94F8
S1130AC065092B013C01C501B4010E9465099B0124
S1130AD0AC01C301B2010E94C40820E030E04FE73A
S1130AE053E40E94F3090E943609FB01E25AFD4FC8
S1130AF08081880FAD81BE818D93BE83AD83BFEFAE
S1130B00EB1AFB0AE016F106B9F6C5C06801D694E3
S1130B10C794E12CF12C2801612C712CEC14FD04F8
S1130B2010F5B70180E090E00E9465094B015C017B
S1130B30C301B2010E9465099B01AC01C501B40166
S1130B400E94C40820E030E84FEF53E40E94F30908
S1130B500E943609FB01E25AFD4F8081880FED8126
S1130B60FE81808303C0AD81BE811C92ED81FE8134
S1130B703196FE83ED83FFEFEF1AFF0AE016F106CC
S1130B8069F689C0E12CF12C4801A12CB12CB701E4
S1130B9080E090E00E9465092B013C01C501B4018D
S1130BA00E9465099B01AC01C301B2010E94C40803
S1130BB020E030E04AE653E40E94F3090E9436093B
S1130BC0FB01EC58FE4F8081AD81BE818D93BE83C5
S1130BD0AD83BFEFEB1AFB0AE016F106C1F65BC06A
S1130BE0C12CD12C2801612C712C6E2D70E080E079
S1130BF090E069837A838B839C83B60180E090E0E4
S1130C000E9465094B015C01C301B2010E946509A0
S1130C109B01AC01C501B4010E94C40820E030E886
S1130C204FEF53E40E94F3094B015C0169817A811F
S1130C308B819C810E946709A50194010E94F3099C
S1130C400E9436097B01E11472E0F70640F08FEF51
S1130C50E81A81E0F80AE11492E0F906C0F7C50148
S1130C60B4010E943609FB01E25AFD4F8081982F9E
S1130C709695F701E25AFD4F80818695890FAD81E3
S1130C80BE818D93BE83AD83BFEFCB1ADB0AC01642
S1130C90D10609F0B2CF26960FB6F894DEBF0FBE88
S1130CA0CDBFDF91CF911F910F91FF90EF90DF9017
S1130CB0CF90BF90AF909F908F907F906F905F90F8
S1130CC04F900895CF93DF93CDB7DEB763970FB6F8
S1130CD0F894DEBF0FBECDBF25E0ECE2F1E0DE010B
S1130CE0119601900D922A95E1F725E0E1E3F1E0F8
S1130CF0DE01169601900D922A95E1F729E0E6E3CC
S1130D00F1E0DE011B9601900D922A95E1F7E62FA2
S1130D10F0E0E35AFB4FE0814E2F50E0FA013197A7
S1130D20E930F10508F058C0DC01E35CFF4F0C9496
S1130D30600A23E539E611963C932E932EE630E0C3
S1130D4013963C932E93129747C025E0E9E1F1E016
S1130D5001900D922A95E1F73FC026E0EFE1F1E022
S1130D6001900D922A95E1F737C027E0E5E2F1E022
S1130D7001900D922A95E1F72FC048E050E0BE01A2
S1130D80655F7F4F0E94660A27C046E050E0BE01BF
S1130D906F5F7F4F0E94660A1FC028E437E51196F3
S1130DA03C932E9322E533E513963C932E931297AE
S1130DB013C025E433E411963C932E9327E430E0EA
S1130DC013963C932E93129707C044E050E0BE0163
S1130DD06A5F7F4F0E94660A63960FB6F894DEBF7F
S1130DE00FBECDBFDF91CF910895CF92DF92FF92D6
S1130DF00F931F93CF93DF93CDB7DEB72A970FB628
S1130E00F894DEBF0FBECDBFF82E6B018E010F5FCD
S1130E101F4F8AE0F80111928A95E9F788E091E082
S1130E200E9448084AE0B801C6010E94750AC80138
S1130E300E9448088FE391E00E9448086F2DC80182
S1130E400E946206C8010E9448088FE491E00E9453
S1130E5048082A960FB6F894DEBF0FBECDBFDF91C7
S1130E60CF911F910F91FF90DF90CF900895EF9253
S1130E70FF920F931F93CF93DF93CDB7DEB76497A1
S1130E800FB6F894DEBF0FBECDBF182F7B01042F21
S1130E90CE0101962AE0FC0111922A95E9F726E099
S1130EA0EEE6F1E0DE011B9601900D922A95E1F742
S1130EB020E23DE43A8B298B2AE330E03C8B2B8BF8
S1130EC0612F0E9462061F3F09F44FC060E080E07A
S1130ED00E94A400183051F1812F8B7F39F1CE018B
S1130EE00B960E94B60081E591E00E94B60060E096
S1130EF086E00E94A400CE0101960E94B600E12F74
S1130F00F0E0E35AFB4F8081893081F4CE014196B1
S1130F100E94B6004AE0BE016F5F7F4F802F90E0D1
S1130F200E94750ACE0101960E94B60061E080E03D
S1130F300E94A40081E591E00E94B60061E080E097
S1130F400E94A40082E691E00E94B6004AE0BE013D
S1130F506F5F7F4FC7010E94750ACE0101960E9400
S1130F60B6008AE691E00E94B60064960FB6F89443
S1130F70DEBF0FBECDBFDF91CF911F910F91FF90C8
S1130F80EF9008951F920F920FB60F9211242F9392
S1130F908F939F93EF93FF938091C0002091C6009D
S1130FA08C71E0917A04EF5FEF7190917904E91705
S1130FB039F0E0937A04F0E0E358FB4F208301C05A
S1130FC082E090917804892B80937804FF91EF91CB
S1130FD09F918F912F910F900FBE0F901F90189596
S1130FE01F920F920FB60F9211248F939F93EF933A
S1130FF0FF9390917C0480917B04981769F0E091B1
S11310007B04EF5FEF71E0937B04F0E0E356FB4F6A
S113101080818093C60005C0E1ECF0E080818F7D83
S11310208083FF91EF919F918F910F900FBE0F904E
S11310301F90189510927C0410927B0410927A04ED
S11310401092790499231CF422E02093C000907834
S11310509093C5008093C40088E98093C10086E022
S11310608093C200089520917C042F5F2F7190918A
S11310707B042917E1F3E22FF0E0E356FB4F808372
S113108020937C04E1ECF0E0808180628083089509
S1131090CF93DF93EC018881882331F021960E945D
S11310A0330889918111FBCFDF91CF910895505876
S11310B0BB27AA270E946F080C94B9090E94AB09A8
S11310C038F00E94B20920F039F49F3F19F426F455
S11310D00C94A8090EF4E095E7FB0C94A209E92FFF
S11310E00E94CA0958F3BA17620773078407950761
S11310F020F079F4A6F50C94EC090EF4E0950B2E8F
S1131100BA2FA02D0B01B90190010C01CA01A00155
S11311101124FF27591B99F0593F50F4503E68F1B0
S11311201A16F040A22F232F342F4427585FF3CFF1
S1131130469537952795A795F0405395C9F77EF4C2
S11311401F16BA0B620B730B840BBAF09150A1F00B
S1131150FF0FBB1F661F771F881FC2F70EC0BA0F91
S1131160621F731F841F48F4879577956795B79519
S1131170F7959E3F08F0B0CF9395880F08F0992714
S1131180EE0F9795879508950E94D8080C94B90995
S11311900E94B20958F00E94AB0940F029F45F3F65
S11311A029F00C94A20951110C94ED090C94A8098E
S11311B00E94CA0968F39923B1F3552391F3951B4F
S11311C0550BBB27AA2762177307840738F09F5F64
S11311D05F4F220F331F441FAA1FA9F335D00E2ED1
S11311E03AF0E0E832D091505040E695001CCAF73E
S11311F02BD0FE2F29D0660F771F881FBB1F261701
S113120037074807AB07B0E809F0BB0B802DBF01D7
S1131210FF2793585F4F3AF09E3F510578F00C94A6
S1131220A2090C94ED095F3FE4F3983ED4F386954C
S113123077956795B795F7959F5FC9F7880F911DC7
S11312409695879597F90895E1E0660F771F881FB3
S1131250BB1F621773078407BA0720F0621B730B66
S1131260840BBA0BEE1F88F7E09508950E94D2090B
S113127088F09F5798F0B92F9927B751B0F0E1F053
S1131280660F771F881F991F1AF0BA95C9F714C003
S1131290B13091F00E94EC09B1E008950C94EC098E
S11312A0672F782F8827B85F39F0B93FCCF386953C
S11312B077956795B395D9F73EF490958095709599
S11312C061957F4F8F4F9F4F0895E89409C097FB16
S11312D03EF490958095709561957F4F8F4F9F4F09
S11312E09923A9F0F92F96E9BB279395F69587954D
S11312F077956795B795F111F8CFFAF4BB0F11F410
S113130060FF1BC06F5F7F4F8F4F9F4F16C08823B6
S113131011F096E911C0772321F09EE8872F762FEC
S113132005C0662371F096E8862F70E060E02AF02D
S11313309A95660F771F881FDAF7880F9695879519
S113134097F9089597F99F6780E870E060E0089541
S11313509FEF80EC089500240A94161617061806C9
S11313600906089500240A941216130614060506A5
S11313700895092E0394000C11F4882352F0BB0F36
S113138040F4BF2B11F460FF04C06F5F7F4F8F4F99
S11313909F4F089557FD9058440F551F59F05F3FD4
S11313A071F04795880F97FB991F61F09F3F79F083
S11313B087950895121613061406551FF2CF469505
S11313C0F1DF08C0161617061806991FF1CF869587
S11313D07105610508940895E894BB27662777276B
S11313E0CB0197F908950E94060A0C94B9090E944A
S11313F0AB0938F00E94B20920F0952311F00C9447
S1131400A2090C94A80911240C94ED090E94CA099C
S113141070F3959FC1F3950F50E0551F629FF00143
S1131420729FBB27F00DB11D639FAA27F00DB11D5C
S1131430AA1F649F6627B00DA11D661F829F2227E5
S1131440B00DA11D621F739FB00DA11D621F839F6C
S1131450A00D611D221F749F3327A00D611D231F42
S1131460849F600D211D822F762F6A2F11249F5790
S113147050409AF0F1F088234AF0EE0FFF1FBB1F93
S1131480661F771F881F91505040A9F79E3F510552
S113149080F00C94A2090C94ED095F3FE4F3983EAC
S11314A0D4F3869577956795B795F795E7959F5FFC
S11314B0C1F7FE2B880F911D9695879597F908958E
S11314C0EE0FFF1F0590F491E02D0994FB01DC0160
S11314D04150504048F001900D920020C9F701C0DE
S11314E01D9241505040E0F70895BB274A3031F433
S11314F0992322F4BDE2909581959F4F0C94810A23
S1131500BB27FB015527AA27880F991FAA1FA417D9
S113151010F0A41B83955051B9F7A05DAA3308F0CD
S1131520A95DA193009779F7B111B1931192CB0101
S11315300C949A0ADC01FC01672F71917723E1F77F
S1131540329704C07C916D9370836291AE17BF078C
S10B1550C8F30895F894FFCFDD
S11315580BBD37863701A100463A200000BD378607
S113156837BD3706396F12833A52616D702B0052BA
S1131578616D702D00537175617265004657525341
S11315880044544D4600547269616E676C650020CE
S1131598487A2C2057617665666F726D3A20000A86
S11315A8002020202020202020202020202020204F
S11315B82000467265712E3A200020487A0047655B
S11315C86E2E3A00111A1518181817171A19181523
S11315D8191A181615151718171617171A2023236A
S11315E825232327262A2E303233363B3A393C3CEE
S11315F8373028221815110F0F0E0B0B0A0A0C0B83
S11316080A080C08090D09080C0B0703030A122918
S11316184F7CAAD1F2FFEED3C493320005080E0D15
S11316280D090103050506070907010103070B094D
S1131638090B0C0B0F100E0E1012151413141313A0
S1131648161B1C1E1F1E1F2325242825282C2F305B
S113165832353636383A383B37383C3A3A38373503
S113166832312E2C2B2B292725252521221E1F1FFD
S11316781E1F1D1B1B1D1D201F1E1C191D1D201F89
S11316881F201E1E25222221202022242323211F3D
S11316982020201E1D1F211F1D1E201E1D1E20224E
S11316A81F1E1B1C1F1E1E1C201F1E1C1B18808196
S11316B883848687898A8C8E8F9192949597989A39
S11316C89B9D9EA0A2A3A5A6A7A9AAACADAFB0B2A4
S11316D8B3B5B6B7B9BABCBDBEC0C1C2C4C5C6C825
S11316E8C9CACBCDCECFD0D2D3D4D5D6D7D9DADBCD
S11316F8DCDDDEDFE0E1E2E3E4E5E6E7E8E9EAEAA7
S1131708EBECEDEEEEEFF0F1F1F2F3F3F4F5F5F6C0
S1131718F6F7F8F8F9F9FAFAFAFBFBFCFCFCFDFD1C
S1131728FDFDFEFEFEFEFEFFFFFFFFFFFFFFFFFFC6
S1131738FFFFFFFFFFFFFEFEFEFEFEFDFDFDFDFCBD
S1131748FCFCFBFBFAFAFAF9F9F8F8F7F6F6F5F502
S1131758F4F3F3F2F1F1F0EFEEEEEDECEBEAEAE993
S1131768E8E7E6E5E4E3E2E1E0DFDEDDDCDBDAD965
S1131778D7D6D5D4D3D2D0CFCECDCBCAC9C8C6C577
S1131788C4C2C1C0BEBDBCBAB9B7B6B5B3B2B0AFB6
S1131798ADACAAA9A7A6A5A3A2A09E9D9B9A98971B
S11317A8959492918F8E8C8A898786848381807E92
S11317B87C7B797876757371706E6D6B6A68676512
S11317C86462615F5D5C5A595856555352504F4D87
S11317D84C4A494846454342413F3E3D3B3A3937E6
S11317E83635343231302F2D2C2B2A29282625241E
S11317F8232221201F1E1D1C1B1A19181716151524
S11318081413121111100F0E0E0D0C0C0B0A0A09E9
S1131818090807070606050505040403030302026D
S113182802020101010101000000000000000000A3
S1131838000000000000010101010102020202038C
S113184803030404050505060607070809090A0A27
S11318580B0C0C0D0E0E0F10111112131415151676
S11318681718191A1B1C1D1E1F2021222324252684
S113187828292A2B2C2D2F30313234353637393A52
S11318883B3D3E3F414243454648494A4C4D4F50F3
S11318985253555658595A5C5D5F6162646567686E
S11318A86A6B6D6E707173757678797B7C7E0906C8
S10D18B8030A0805020A07040100F0
S9030000FC
