S013000050726F6A6563745F4441432E7372656313
S11300000C9443000C9460000C9460000C94600009
S11300100C9460000C9460000C9460000C946000DC
S11300200C9460000C9424020C9460000C94600006
S11300300C9460000C9460000C9460000C946000BC
S11300400C9462000C9460000C9460000C946000AA
S11300500C9460000C9460000C9460000C9460009C
S11300600C9460000C94600005A84CCDB2D44EB939
S11300703836A9020C50B9918688083CA6AAAA2A47
S1130080BE000000803F11241FBECFEFD8E0DEBFCA
S1130090CDBF11E0A0E0B1E0E2E7FDE002C00590D1
S11300A00D92AE31B107D9F725E0AEE1B1E001C060
S11300B01D92A131B207E1F70E9483010C94B706A7
S11300C00C9400001F920F920FB60F9211242F93DD
S11300D03F938F939F93EF93FF932091230130914C
S11300E02401809125019091260101972817390751
S11300F038F42F5F3F4F309324012093230108C02D
S113010010922401109223011092240110922401D0
S1130110E0912301F0912401E75DFE4F808185B9D0
S1130120FF91EF919F918F913F912F910F900FBE6F
S11301300F901F9018958F929F92AF92BF92CF927B
S1130140DF92EF92FF921F93CF93DF9360910501AB
S11301507091060180E090E00E9434059B01AC019F
S113016060E070E080E89FE30E9493046B017C01EF
S11301702091010130910201409103015091040149
S11301800E9493040E940505615071097093260131
S113019060932501693E734078F1C0911E01C3301C
S11301A058F5CF5F01C0C82FEC2FF0E0EE0FFF1F12
S11301B0EE0FFF1FEE5EFE4F80809180A280B38021
S11301C0A5019401C701B6010E9493040E9405058C
S11301D061507109693E83E0780718F5C0931E01E8
S11301E08092010190920201A0920301B092040155
S11301F07093260160932501C0911E0181E0209136
S11302002501309126012F3F310508F080E0882335
S113021009F453C081E0C11101C080E0811115C00F
S11302204CC081E08C0F843009F0BDCFC0931E0117
S11302308092010190920201A0920301B092040104
S11302407093260160932501D7CFC150D1E010E00F
S113025001C0C92FEC2FF0E0EE0FFF1FEE0FFF1FC0
S1130260EE5EFE4F80809180A280B380A501940150
S1130270C701B6010E9493040E94050561507109EB
S11302809FEF9C0F8D2F6F3F710508F0812F8823FE
S113029031F08D2FC11101C0812F8111DACFC093AC
S11302A01E018092010190920201A0920301B0927A
S11302B004017093260160932501C13059F018F0B0
S11302C0C23079F014C085B5897F85BD85B581605C
S11302D085BD0DC085B58A7F85BD85B5826085BD28
S11302E006C085B58B7F85BD85B5836085BDDF91EF
S11302F0CF911F91FF90EF90DF90CF90BF90AF9080
S11303009F908F9008950E949B008FEF84B987E09F
S113031087B90091010110910201209103013091EC
S11303200401409105015091060161E089E291E0E8
S11303300E94CF0285B5897F85BD85B5816085BD65
S1130340EEE6F0E0808181608083E1EBF0E0808183
S11303508C7F8083808184608083E0E7F0E080810B
S1130360816080837894FFCF0F931F93809127013E
S113037090912801009709F464C080FD59C020E0E1
S11303802F5F9695879580FFFBCF909328018093EC
S1130390270141E0211140E081E0283009F080E0AC
S11303A0922F977F51F5209105013091060191E03C
S11303B0203D57E0350708F090E0992351F04111B2
S11303C002C007C080E02F5F3F4F309306012093A7
S11303D00501209105013091060191E02536310592
S11303E008F490E0992359F0882349F02150310909
S11303F0309306012093050102C0209300010E945E
S11304009B000091010110910201209103013091A0
S113041004014091050150910601E0910001F0E0D2
S1130420EA5FFE4F608189E291E00E94CF0209C039
S11304302091050130910601203D87E0380710F234
S1130440DECF1F910F9108951F920F920FB60F9256
S113045011242F933F934F935F936F937F938F93C5
S11304609F93AF93BF93EF93FF932091210130911A
S11304702201809120018F5F80932001833080F4DA
S113048088B1887F88B948B181E090E0009020016C
S113049002C0880F991F0A94E2F7842B88B911C00F
S11304A01092200188B1887F88B948B181E090E03A
S11304B00090200102C0880F991F0A94E2F7842B50
S11304C088B9809120018130C9F018F0823039F167
S11304D037C086B1887790E0409121015091220184
S11304E0407F969587959695879596958795842BC5
S11304F0952B909322018093210122C086B18877A5
S113050090E040912101509122014F70880F991F72
S1130510842B952B909322018093210111C046B125
S113052048778091210190912201907F60E2469F5B
S1130530A0011124842B952B9093220180932101F7
S113054080911F018F5F80931F0140912101509181
S1130550220191E08B3008F490E0992379F081E056
S11305602417350709F080E0882341F050932801CF
S11305704093270110921F010E94B401FF91EF9153
S1130580BF91AF919F918F917F916F915F914F91A7
S11305903F912F910F900FBE0F901F9018954F927F
S11305A05F926F927F928F929F92AF92BF92CF92FF
S11305B0DF92EF92FF920F931F93CF93DF93EC019F
S11305C0F62E48015901BA0180E090E00E943405FA
S11305D09B01AC0160E070E080E89FE30E9493041B
S11305E0A50194010E9493040E9405058B0101500A
S11305F0110983E0F816C9F08F1538F081E0F81678
S1130600E9F082E0F816B1F00BC184E0F81641F08D
S113061085E0F81205C10115110509F0B1C000C14A
S11306200115110509F09AC0FBC00115110509F067
S113063067C0F6C001151105E9F5F2C001151105F1
S113064009F4EEC0E12CF12C4801A12CB12CB70126
S113065080E090E00E9434059B01AC010E942204DA
S11306602BED3FE049E450E40E9401062B013C01DC
S1130670C501B4010E9434059B01AC01C301B20160
S11306800E9493040E948E0420E030E04FEF52E475
S11306900E94010620E030E04FEF52E40E94220461
S11306A00E94050569938FEFE81AF80AE016F1062F
S11306B070F2B6C0E12CF12C4801A12CB12CB70189
S11306C080E090E00E9434052B013C01C501B40197
S11306D00E9434059B01AC01C301B2010E94930442
S11306E020E030E04FE753E40E9401060E94050534
S11306F069938FEFE81AF80AE016F10600F390C048
S1130700E12CF12C4801A12CB12CB70180E090E040
S11307100E9434052B013C01C501B4010E9434053B
S11307209B01AC01C301B2010E94930420E030E0BC
S11307304FE753E40E9401069B01AC0160E070E0C6
S11307408FE793E40E9421040E94050569938FEFCB
S1130750E81AF80AE016F106C0F262C0980136956C
S1130760279580E090E04FEF8217930710F41882EA
S113077001C048832196019680179107A8F350C0C1
S11307806801D694C794E12CF12C2801612C712CBA
S1130790EC14FD04D8F4B70180E090E00E94340525
S11307A04B015C01C301B2010E9434059B01AC0101
S11307B0C501B4010E94930420E030E04FE753E404
S11307C00E9401060E940505688322C0B70180E0EB
S11307D090E00E9434054B015C01C301B2010E9408
S11307E034059B01AC01C501B4010E94930420E0CF
S11307F030E04FE753E40E9401069B01AC0160E046
S113080070E08FE793E40E9421040E940505688349
S113081021968FEFE81AF80AE016F10608F4B8CF2B
S1130820DF91CF911F910F91FF90EF90DF90CF90C8
S1130830BF90AF909F908F907F906F905F904F90FC
S113084008955058BB27AA270E9439040C94B30575
S11308500E947A0538F00E94810520F039F49F3F08
S113086019F426F40C9477050EF4E095E7FB0C9448
S11308707105E92F0E94D80558F3BA176207730768
S11308808407950720F079F4A6F50C94FA050EF484
S1130890E0950B2EBA2FA02D0B01B90190010C018C
S11308A0CA01A0011124FF27591B99F0593F50F4A4
S11308B0503E68F11A16F040A22F232F342F4427FC
S11308C0585FF3CF469537952795A795F0405395F4
S11308D0C9F77EF41F16BA0B620B730B840BBAF0C4
S11308E09150A1F0FF0FBB1F661F771F881FC2F72F
S11308F00EC0BA0F621F731F841F48F48795779543
S11309006795B795F7959E3F08F0B0CF9395880FFC
S113091008F09927EE0F9795879508950E948A0508
S1130920E3950C94C4050E94A7040C94B3050E949B
S1130930810558F00E947A0540F029F45F3F29F0C0
S11309400C94710551110C94FB050C9477050E94CD
S1130950D80568F39923B1F3552391F3951B550BEF
S1130960BB27AA2762177307840738F09F5F5F4F7E
S1130970220F331F441FAA1FA9F335D00E2E3AF0BD
S1130980E0E832D091505040E695001CCAF72BD0D5
S1130990FE2F29D0660F771F881FBB1F2617370726
S11309A04807AB07B0E809F0BB0B802DBF01FF2758
S11309B093585F4F3AF09E3F510578F00C947105BF
S11309C00C94FB055F3FE4F3983ED4F3869577954A
S11309D06795B795F7959F5FC9F7880F911D969511
S11309E0879597F90895E1E0660F771F881FBB1F6D
S11309F0621773078407BA0720F0621B730B840B1A
S1130A00BA0BEE1F88F7E09508950E94E00588F080
S1130A109F5798F0B92F9927B751B0F0E1F0660FBE
S1130A20771F881F991F1AF0BA95C9F714C0B130FF
S1130A3091F00E94FA05B1E008950C94FA05672F2D
S1130A40782F8827B85F39F0B93FCCF3869577952E
S1130A506795B395D9F73EF4909580957095619517
S1130A607F4F8F4F9F4F0895E89409C097FB3EF442
S1130A7090958095709561957F4F8F4F9F4F9923E7
S1130A80A9F0F92F96E9BB279395F6958795779565
S1130A906795B795F111F8CFFAF4BB0F11F460FF25
S1130AA01BC06F5F7F4F8F4F9F4F16C0882311F07D
S1130AB096E911C0772321F09EE8872F762F05C091
S1130AC0662371F096E8862F70E060E02AF09A952C
S1130AD0660F771F881FDAF7880F9695879597F921
S1130AE0089597F99F6780E870E060E008959FEFAC
S1130AF080EC089500240A941616170618060906B1
S1130B00089500240A94121613061406050608957F
S1130B100C9477050E94E005D8F3E894E0E0BB2745
S1130B209F57F0F02AED3FE049EC06C0EE0FBB0FF3
S1130B30661F771F881F28F0B23A6207730784077D
S1130B4028F0B25A620B730B840BE3959A9572F7F3
S1130B50803830F49A95BB0F661F771F881FD2F731
S1130B6090480C947006092E0394000C11F4882309
S1130B7052F0BB0F40F4BF2B11F460FF04C06F5F51
S1130B807F4F8F4F9F4F0895EF93E0FF07C0A2EA76
S1130B902AED3FE049EC5FEB0E9439040E94B30563
S1130BA00F90039401FC9058E8E6F0E00C947C0666
S1130BB057FD9058440F551F59F05F3F71F047950A
S1130BC0880F97FB991F61F09F3F79F087950895EF
S1130BD0121613061406551FF2CF4695F1DF08C00E
S1130BE0161617061806991FF1CF8695710561052B
S1130BF008940895E894BB2766277727CB0197F9D3
S1130C0008950E9414060C94B3050E947A0538F0E6
S1130C100E94810520F0952311F00C9471050C9429
S1130C20770511240C94FB050E94D80570F3959F59
S1130C30C1F3950F50E0551F629FF001729FBB27CF
S1130C40F00DB11D639FAA27F00DB11DAA1F649F6B
S1130C506627B00DA11D661F829F2227B00DA11D1E
S1130C60621F739FB00DA11D621F839FA00D611DA4
S1130C70221F749F3327A00D611D231F849F600DC5
S1130C80211D822F762F6A2F11249F5750409AF0EE
S1130C90F1F088234AF0EE0FFF1FBB1F661F771F7A
S1130CA0881F91505040A9F79E3F510580F00C9445
S1130CB071050C94FB055F3FE4F3983ED4F38695ED
S1130CC077956795B795F795E7959F5FC1F7FE2BE5
S1130CD0880F911D9695879597F908959F3F31F058
S1130CE0915020F4879577956795B795880F911D56
S1130CF09695879597F908959F938F937F936F9314
S1130D00FF93EF939B01AC010E940106EF91FF91C9
S1130D100E9490062F913F914F915F910C94010690
S1130D20DF93CF931F930F93FF92EF92DF927B0198
S1130D308C01689406C0DA2EEF010E941406FE01AD
S1130D40E894A5912591359145915591A6F3EF012C
S1130D500E943904FE019701A801DA9469F7DF9033
S1130D60EF90FF900F911F91CF91DF910895F89428
S1050D70FFCFAF
S1130D720BBD37863764000906030A0805020A0711
S1110D820401BD378637BD3706396F12833A38
S9030000FC
