S013000050726F6A6563745F4441432E7372656313
S11300000C9443000C9460000C9460000C94600009
S11300100C9460000C9460000C9460000C946000DC
S11300200C9460000C9444030C9460000C946000E5
S11300300C9460000C9460000C9460000C946000BC
S11300400C9405010C9460000C9460000C94600006
S11300500C9460000C9460000C9460000C9460009C
S11300600C9460000C94600005A84CCDB2D44EB939
S11300703836A9020C50B9918688083CA6AAAA2A47
S1130080BE000000803F11241FBECFEFD8E0DEBFCA
S1130090CDBF11E0A0E0B1E0ECE0F0E102C00590DA
S11300A00D92AE35B107D9F725E0AEE5B1E001C058
S11300B01D92A135B207E1F70E94B6020C94040820
S11300C00C9400005B9A85E08A95F1F700005B9838
S11300D00895CF93C82F662311F05A9A01C05A98F5
S11300E0549A559A569A579A5F985E985D985C9878
S11300F0CC230CF45F9AC6FD5E9AC5FD5D9AC4FDDF
S11301005C9A0E9462005F985E985D985C98C3FD5B
S11301105F9AC2FD5E9AC1FD5D9AC0FD5C9A0E9421
S113012062005C9A5D9A5E9A5F9A87EB9BE0019706
S1130130F1F700C00000CF91089560E00E946900CB
S11301400895611104C080580E949D000895805450
S11301500E949D00089581E00E949D00089561E041
S11301600E9469000895CF93DF93EC012196FC016E
S11301708081882329F00E94AF0089918111FBCFEF
S1130180DF91CF910895CF93C82F529A559A539ADD
S1130190549A559A569A579A8FEF99EF0197F1F717
S11301A000C000005D9A5C9A0E9462008FE19EE4A8
S11301B00197F1F700C000000E9462008FEF90E009
S11301C00197F1F700C000000E9462008FEF90E0F9
S11301D00197F1F700C000005C980E9462008FEF65
S11301E090E00197F1F700C0000088E20E949D00B2
S11301F088E00E949D000E94AB0086E00E949D0062
S11302008C2F0E949D00CF9108951F920F920FB6DC
S11302100F9211242F933F938F939F93EF93FF9308
S11302202091630130916401809165019091660190
S113023001972817390738F42F5F3F4F3093640133
S11302402093630108C0109264011092630110921C
S1130250240110922401E0916301F0916401E759B3
S1130260FE4F808185B9FF91EF919F918F913F91CE
S11302702F910F900FBE0F901F9018958F929F9201
S1130280AF92BF92CF92DF92EF92FF92CF936091A1
S113029005017091060180E090E00E944C069B01EC
S11302A0AC0160E070E080E89FE30E94AB056B0165
S11302B07C01209101013091020140910301509190
S11302C004010E94AB050E941D06615071097093E0
S11302D0660160936501693E734078F1C0915E01E7
S11302E0C33058F5CF5F01C0C82FEC2FF0E0EE0FFC
S11302F0FF1FEE0FFF1FEE5AFE4F80809180A280F9
S1130300B380A5019401C701B6010E94AB050E9408
S11303101D0661507109693E83E07807D8F4C093E3
S11303205E018092010190920201A0920301B092B9
S11303300401709366016093650180916501909159
S113034066018F3F910508F052C0C0915E01C11152
S113035014C055C081E08C0F843031F6C0935E0127
S11303608092010190920201A0920301B0920401D3
S11303707093660160936501E0CFC150EC2FF0E00B
S1130380EE0FFF1FEE0FFF1FEE5AFE4F808091808D
S1130390A280B380A5019401C701B6010E94AB05F8
S11303A00E941D06615071096F3F710578F0C0937A
S11303B05E018092010190920201A0920301B09229
S11303C00401709366016093650111C0C111D5CF1A
S11303D010925E018092010190920201A0920301A9
S11303E0B0920401709366016093650108C0809126
S11303F05E01813059F018F0823079F014C085B56F
S1130400897F85BD85B5816085BD0DC085B58A7F31
S113041085BD85B5826085BD06C085B58B7F85BDEC
S113042085B5836085BDCF91FF90EF90DF90CF902D
S1130430BF90AF909F908F9008951F93CF93DF93B9
S1130440CDB7DEB72A970FB6F894DEBF0FBECDBF87
S1130450182F60E080E00E94A10087E091E00E94F4
S1130460B30060E080E00E94A10088E191E00E9476
S1130470B300E12FF0E0EA5BFE4F80818330F9F0B6
S113048028F4813049F0823081F040C0853059F140
S113049000F1863091F13AC083E599E69A83898325
S11304A08EE690E09C838B8331C086E0EFE1F1E03F
S11304B0DE01119601900D928A95E1F727C086E03E
S11304C0E5E2F1E0DE01119601900D928A95E1F7E3
S11304D01DC087E0EBE2F1E0DE01119601900D9280
S11304E08A95E1F713C089E0E2E3F1E0DE011196B9
S11304F001900D928A95E1F709C086E0EFE1F1E001
S1130500DE01119601900D928A95E1F7CE010196D4
S11305100E94B30061E080E00E94A10087E091E0C6
S11305200E94B30061E080E00E94A1008BE391E0AF
S11305300E94B3004AE0BE016F5F7F4F80910501C6
S1130540909106010E94CF07CE0101960E94B3004C
S113055083E491E00E94B3002A960FB6F894DEBFBC
S11305600FBECDBFDF91CF911F9108950E943E0130
S11305708CE00E94C3008BE00E941D028FEF8AB9B9
S113058084B987E087B9009101011091020120919B
S1130590030130910401409105015091060161E08D
S11305A089E691E00E94E70385B5897F85BD85B51D
S11305B0816085BDEEE6F0E0808181608083E1EBBF
S11305C0F0E080818C7F8083808184608083E0E799
S11305D0F0E08081816080837894FFCF0F931F9334
S11305E08091670190916801009709F44AC080FDE9
S11305F00FC020E02F5F9695879580FFFBCF9093E7
S1130600680180936701222319F02830E1F40EC0B9
S11306108091050190910601803D27E09207A8F49E
S1130620019690930601809305010FC08091050106
S1130630909106018536910540F00197909306014B
S11306408093050102C0209300010E943E010091A5
S113065001011091020120910301309104014091A4
S1130660050150910601E0910001F0E0EA5BFE4FC4
S1130670608189E691E00E94E703809100010E9475
S11306801D021F910F9108951F920F920FB60F92A2
S113069011242F933F934F935F936F937F938F9383
S11306A09F93AF93BF93EF93FF9320916101309198
S11306B06201809160018F5F80936001833080F4D8
S11306C088B1887F88B948B181E090E000906001EA
S11306D002C0880F991F0A94E2F7842B88B911C0CD
S11306E01092600188B1887F88B948B181E090E0B8
S11306F00090600102C0880F991F0A94E2F7842BCE
S113070088B9809160018130C9F018F0823039F1E4
S113071037C086B1887790E04091610150916201C1
S1130720407F969587959695879596958795842B82
S1130730952B909362018093610122C086B18877E2
S113074090E040916101509162014F70880F991FB0
S1130750842B952B909362018093610111C046B163
S113076048778091610190916201907F60E2469F99
S1130770A0011124842B952B909362018093610135
S113078080915F018F5F80935F018B3078F080915F
S11307906101909162012817390741F4309368018F
S11307A02093670110925F010E94EE02FF91EF9186
S11307B0BF91AF919F918F917F916F915F914F9175
S11307C03F912F910F900FBE0F901F9018954F924D
S11307D05F926F927F928F929F92AF92BF92CF92CD
S11307E0DF92EF92FF920F931F93CF93DF93EC016D
S11307F0F62E48015901BA0180E090E00E944C06AF
S11308009B01AC0160E070E080E89FE30E94AB05CF
S1130810A50194010E94AB050E941D068B010150A5
S1130820110983E0F816C9F08F1538F081E0F81645
S1130830E9F082E0F816B1F00BC184E0F81641F05B
S113084085E0F81205C10115110509F0B1C000C118
S11308500115110509F09AC0FBC00115110509F035
S113086067C0F6C001151105E9F5F2C001151105BF
S113087009F4EEC0E12CF12C4801A12CB12CB701F4
S113088080E090E00E944C069B01AC010E943A0576
S11308902BED3FE049E450E40E9419072B013C0191
S11308A0C501B4010E944C069B01AC01C301B20115
S11308B00E94AB050E94A60520E030E04FEF52E411
S11308C00E94190720E030E04FEF52E40E943A05FD
S11308D00E941D0669938FEFE81AF80AE016F106E4
S11308E070F2B6C0E12CF12C4801A12CB12CB70157
S11308F080E090E00E944C062B013C01C501B4014C
S11309000E944C069B01AC01C301B2010E94AB05DD
S113091020E030E04FE753E40E9419070E941D06CF
S113092069938FEFE81AF80AE016F10600F390C015
S1130930E12CF12C4801A12CB12CB70180E090E00E
S11309400E944C062B013C01C501B4010E944C06D7
S11309509B01AC01C301B2010E94AB0520E030E071
S11309604FE753E40E9419079B01AC0160E070E07B
S11309708FE793E40E9439050E941D0669938FEF67
S1130980E81AF80AE016F106C0F262C0980136953A
S1130990279580E090E04FEF8217930710F41882B8
S11309A001C048832196019680179107A8F350C08F
S11309B06801D694C794E12CF12C2801612C712C88
S11309C0EC14FD04D8F4B70180E090E00E944C06DA
S11309D04B015C01C301B2010E944C069B01AC01B6
S11309E0C501B4010E94AB0520E030E04FE753E4B9
S11309F00E9419070E941D06688322C0B70180E087
S1130A0090E00E944C064B015C01C301B2010E94BC
S1130A104C069B01AC01C501B4010E94AB0520E06A
S1130A2030E04FE753E40E9419079B01AC0160E0FA
S1130A3070E08FE793E40E9439050E941D066883E5
S1130A4021968FEFE81AF80AE016F10608F4B8CFF9
S1130A50DF91CF911F910F91FF90EF90DF90CF9096
S1130A60BF90AF909F908F907F906F905F904F90CA
S1130A7008955058BB27AA270E9451050C94CB0611
S1130A800E94920638F00E94990620F039F49F3FA4
S1130A9019F426F40C948F060EF4E095E7FB0C94FD
S1130AA08906E92F0E94F00658F3BA176207730704
S1130AB08407950720F079F4A6F50C9412070EF438
S1130AC0E0950B2EBA2FA02D0B01B90190010C015A
S1130AD0CA01A0011124FF27591B99F0593F50F472
S1130AE0503E68F11A16F040A22F232F342F4427CA
S1130AF0585FF3CF469537952795A795F0405395C2
S1130B00C9F77EF41F16BA0B620B730B840BBAF091
S1130B109150A1F0FF0FBB1F661F771F881FC2F7FC
S1130B200EC0BA0F621F731F841F48F48795779510
S1130B306795B795F7959E3F08F0B0CF9395880FCA
S1130B4008F09927EE0F9795879508950E94A206BD
S1130B50E3950C94DC060E94BF050C94CB060E941E
S1130B60990658F00E94920640F029F45F3F29F05C
S1130B700C94890651110C9413070C948F060E944F
S1130B80F00668F39923B1F3552391F3951B550BA4
S1130B90BB27AA2762177307840738F09F5F5F4F4C
S1130BA0220F331F441FAA1FA9F335D00E2E3AF08B
S1130BB0E0E832D091505040E695001CCAF72BD0A3
S1130BC0FE2F29D0660F771F881FBB1F26173707F4
S1130BD04807AB07B0E809F0BB0B802DBF01FF2726
S1130BE093585F4F3AF09E3F510578F00C94890674
S1130BF00C9413075F3FE4F3983ED4F386957795FE
S1130C006795B795F7959F5FC9F7880F911D9695DE
S1130C10879597F90895E1E0660F771F881FBB1F3A
S1130C20621773078407BA0720F0621B730B840BE7
S1130C30BA0BEE1F88F7E09508950E94F80688F035
S1130C409F5798F0B92F9927B751B0F0E1F0660F8C
S1130C50771F881F991F1AF0BA95C9F714C0B130CD
S1130C6091F00E941207B1E008950C941207672FC7
S1130C70782F8827B85F39F0B93FCCF386957795FC
S1130C806795B395D9F73EF49095809570956195E5
S1130C907F4F8F4F9F4F0895E89409C097FB3EF410
S1130CA090958095709561957F4F8F4F9F4F9923B5
S1130CB0A9F0F92F96E9BB279395F6958795779533
S1130CC06795B795F111F8CFFAF4BB0F11F460FFF3
S1130CD01BC06F5F7F4F8F4F9F4F16C0882311F04B
S1130CE096E911C0772321F09EE8872F762F05C05F
S1130CF0662371F096E8862F70E060E02AF09A95FA
S1130D00660F771F881FDAF7880F9695879597F9EE
S1130D10089597F99F6780E870E060E008959FEF79
S1130D2080EC089500240A9416161706180609067E
S1130D30089500240A94121613061406050608954D
S1130D400C948F060E94F806D8F3E894E0E0BB27E1
S1130D509F57F0F02AED3FE049EC06C0EE0FBB0FC1
S1130D60661F771F881F28F0B23A6207730784074B
S1130D7028F0B25A620B730B840BE3959A9572F7C1
S1130D80803830F49A95BB0F661F771F881FD2F7FF
S1130D9090480C948807092E0394000C11F48823BE
S1130DA052F0BB0F40F4BF2B11F460FF04C06F5F1F
S1130DB07F4F8F4F9F4F0895EF93E0FF07C0A2EA44
S1130DC02AED3FE049EC5FEB0E9451050E94CB06FF
S1130DD00F90039401FC9058E8E6F0E00C9494071B
S1130DE057FD9058440F551F59F05F3F71F04795D8
S1130DF0880F97FB991F61F09F3F79F087950895BD
S1130E00121613061406551FF2CF4695F1DF08C0DB
S1130E10161617061806991FF1CF869571056105F8
S1130E2008940895E894BB2766277727CB0197F9A0
S1130E3008950E942C070C94CB060E94920638F069
S1130E400E94990620F0952311F00C9489060C94C5
S1130E508F0611240C9413070E94F00670F3959FDB
S1130E60C1F3950F50E0551F629FF001729FBB279D
S1130E70F00DB11D639FAA27F00DB11DAA1F649F39
S1130E806627B00DA11D661F829F2227B00DA11DEC
S1130E90621F739FB00DA11D621F839FA00D611D72
S1130EA0221F749F3327A00D611D231F849F600D93
S1130EB0211D822F762F6A2F11249F5750409AF0BC
S1130EC0F1F088234AF0EE0FFF1FBB1F661F771F48
S1130ED0881F91505040A9F79E3F510580F00C9413
S1130EE089060C9413075F3FE4F3983ED4F3869588
S1130EF077956795B795F795E7959F5FC1F7FE2BB3
S1130F00880F911D9695879597F908959F3F31F025
S1130F10915020F4879577956795B795880F911D23
S1130F209695879597F908959F938F937F936F93E1
S1130F30FF93EF939B01AC010E941907EF91FF917E
S1130F400E94A8072F913F914F915F910C9419072C
S1130F50DF93CF931F930F93FF92EF92DF927B0166
S1130F608C01689406C0DA2EEF010E942C07FE0162
S1130F70E894A5912591359145915591A6F3EF01FA
S1130F800E945105FE019701A801DA9469F7DF90E8
S1130F90EF90FF900F911F91CF91DF910895BB27A0
S1130FA04A3031F4992322F4BDE2909581959F4F04
S1130FB00C94DB07BB27FB015527AA27880F991F31
S1130FC0AA1FA41710F0A41B83955051B9F7A05D74
S1130FD0AA3308F0A95DA193009779F7B111B193F1
S1130FE01192CB010C94F407DC01FC01672F719181
S1130FF07723E1F7329704C07C916D9370836291FB
S10F1000AE17BF07C8F30895F894FFCFA3
S113100C0BBD378637A10020202020202020202053
S113101C202020202020200047656E2E3A200052EC
S113102C616D702B0052616D702D0053717561727E
S113103C6500547269616E676C6500467265712E49
S113104C3A200020487A000906030A0805020A0718
S111105C0401BD378637BD3706396F12833A5B
S9030000FC
