S013000050726F6A6563745F4441432E7372656313
S11300000C9446000C9463000C9463000C946300FD
S11300100C9463000C9463000C9463000C946300D0
S11300200C9463000C9467040C9463000C946300B8
S11300300C9463000C9463000C9463000C946300B0
S11300400C9408010C9463000C947E070C94AC0788
S11300500C9463000C9463000C9463000C94630090
S11300600C9463000C946300780184018C01940166
S11300709C01A401AC01B801C40171056D056805BA
S113008063055E05590554054F054A0511241FBE35
S1130090CFEFD8E0DEBFCDBF14E0A0E0B1E0E0EDEB
S11300A0F4E102C005900D92AA36B107D9F728E011
S11300B0AAE6B4E001C01D92A33AB207E1F70E9498
S11300C087030C94660A0C9400005B9A85E08A9579
S11300D0F1F700005B980895CF93C82F662311F0C1
S11300E05A9A01C05A98549A559A569A579A5F98B0
S11300F05E985D985C98CC230CF45F9AC6FD5E9A7A
S1130100C5FD5D9AC4FD5C9A0E9465005F985E9887
S11301105D985C98C3FD5F9AC2FD5E9AC1FD5D9ACD
S1130120C0FD5C9A0E9465005C9A5D9A5E9A5F9A33
S113013087EB9BE00197F1F700C00000CF91089591
S113014060E00E946C000895611104C080580E9410
S1130150A000089580540E94A000089581E00E94A8
S1130160A000089561E00E946C000895CF93DF938E
S1130170EC012196FC018081882329F00E94B200C1
S113018089918111FBCFDF91CF910895CF93C82F2F
S1130190529A559A539A549A559A569A579A8FEF57
S11301A099EF0197F1F700C000005D9A5C9A0E94F4
S11301B065008FE19EE40197F1F700C000000E9402
S11301C065008FEF90E00197F1F700C000000E94F6
S11301D065008FEF90E00197F1F700C000005C9894
S11301E00E9465008FEF90E00197F1F700C00000D6
S11301F088E20E94A00088E00E94A0000E94AE0055
S113020086E00E94A0008C2F0E94A000CF91089548
S11302101F920F920FB60F9211242F933F938F9337
S11302209F93EF93FF932091700430917104809118
S113023072049091730401972817390738F42F5FDB
S11302403F4F309371042093700408C010927104DE
S1130250109270041092240110922401E091700411
S1130260F0917104E554FB4F808185B9FF91EF91C2
S11302709F918F913F912F910F900FBE0F901F90E0
S11302801895CF93DF93CDB7DEB763970FB6F89485
S1130290DEBF0FBECDBF25E0E0E2F1E0DE01119646
S11302A001900D922A95E1F725E0E5E2F1E0DE0107
S11302B0169601900D922A95E1F729E0EAE2F1E021
S11302C0DE011B9601900D922A95E1F7E62FF0E0EE
S11302D0E959FE4FE0814E2F50E0FA013197E930A1
S11302E0F10508F058C0DC01EC5CFF4F0C941C0ACB
S11302F023E539E611963C932E932EE630E01396CF
S11303003C932E93129747C025E0EDE0F1E0019075
S11303100D922A95E1F73FC026E0E3E1F1E0019078
S11303200D922A95E1F737C027E0E9E1F1E0019069
S11303300D922A95E1F72FC048E050E0BE01655FB9
S11303407F4F0E94220A27C046E050E0BE016F5F43
S11303507F4F0E94220A1FC028E437E511963C9380
S11303602E9322E533E513963C932E93129713C0F4
S113037025E433E411963C932E9327E430E013965E
S11303803C932E93129707C044E050E0BE016A5F8D
S11303907F4F0E94220A63960FB6F894DEBF0FBE09
S11303A0CDBFDF91CF910895FF920F931F93CF9309
S11303B0DF93CDB7DEB72A970FB6F894DEBF0FBE32
S11303C0CDBFF82E8E010F5F1F4F8AE0F801119206
S11303D08A95E9F788E091E00E940408809106017B
S11303E0909107014AE0B8010E94310AC8010E94B5
S11303F0040883E391E00E9404086F2DC8010E9461
S11304004101C8010E94040883E491E00E940408A9
S11304102A960FB6F894DEBF0FBECDBFDF91CF9101
S11304201F910F91FF900895CF92DF92EF92FF9268
S1130430CF93609106017091070180E090E00E94E3
S113044021099B01AC0160E070E080E89FE30E9419
S113045080082091010130910201409103015091E3
S113046004010E9480080E94F20870937304609350
S11304707204693E7340D8F1C0916A04C330B8F580
S1130480CF5F01C0C82FEC2FF0E0EE0FFF1FEE0F7F
S1130490FF1FED58FE4FC080D180E280F380609151
S11304A006017091070180E090E00E9421099B0100
S11304B0AC0160E070E080E89FE30E948008A7013F
S11304C096010E9480080E94F208693E83E0780742
S11304D0D8F4C0936A04C0920101D0920201E09260
S11304E00301F09204017093730460937204809189
S11304F07204909173048F3F910508F05FC0C0911E
S11305006A04C11115C062C081E08C0F843009F007
S1130510B9CFC0936A04C0920101D0920201E09263
S11305200301F09204017093730460937204DFCFAB
S1130530C150EC2FF0E0EE0FFF1FEE0FFF1FED5840
S1130540FE4FC080D180E280F380609106017091FB
S1130550070180E090E00E9421099B01AC0160E06A
S113056070E080E89FE30E948008A70196010E9442
S113057080080E94F2086F3F710578F0C0936A0406
S1130580C0920101D0920201E0920301F0920401B1
S1130590709373046093720411C0C111C9CF109297
S11305A06A04C0920101D0920201E0920301F09228
S11305B00401709373046093720408C080916A0408
S11305C0813059F018F0823079F014C085B5897FF4
S11305D085BD85B5816085BD0DC085B58A7F85BD26
S11305E085B5826085BD06C085B58B7F85BD85B523
S11305F0836085BDCF91FF90EF90DF90CF900895F9
S11306001F93CF93DF93CDB7DEB764970FB6F894FB
S1130610DEBF0FBECDBF182FCE0101962AE0FC012C
S113062011922A95E9F726E0E2E6F1E0DE011B9655
S113063001900D922A95E1F720E23DE43A8B298B53
S11306402AE330E03C8B2B8B612F0E9441011F3F3A
S113065009F453C060E080E00E94A400183059F10E
S1130660812F8B7F41F1CE010B960E94B60085E469
S113067091E00E94B60060E086E00E94A400CE01F2
S113068001960E94B600E12FF0E0E959FE4F808107
S1130690893089F4CE0141960E94B600809105010B
S11306A04AE0BE016F5F7F4F90E00E94310ACE01A5
S11306B001960E94B60061E080E00E94A40085E4F7
S11306C091E00E94B60061E080E00E94A40086E50B
S11306D091E00E94B60080910601909107014AE0E2
S11306E0BE016F5F7F4F0E94310ACE0101960E94C6
S11306F0B6008EE591E00E94B60064960FB6F894B9
S1130700DEBF0FBECDBFDF91CF911F9108950E9430
S113071014028CE00E94C60087E690E00E94D6078F
S11307208BE00E9400038FEF8AB984B987E087B910
S1130730E0900501409106015091070100910101EB
S113074010910201209103013091040161E08BEBCF
S113075094E00E940A0585B5897F85BD85B58160D1
S113076085BDEEE6F0E0808181608083E1EBF0E01E
S113077080818C7F8083808184608083E0E7F0E0E7
S11307808081816080837894FFCFEF920F931F93D1
S11307908091740490917504009709F494C080FDCD
S11307A078C020E001C0232F31E0320F9695879561
S11307B080FFF9CF9093750480937404332309F474
S11307C06EC02B7F2330B1F56FC030E080910601FD
S11307D090910701803D974080F5809106019091AA
S11307E007010196909307018093060126C03830D3
S11307F021F580910601909107018536910530F12C
S113080080910601909107010197909307018093CD
S113081006011CC0809105018F5F8093050116C0FD
S113082080910501823090F0809105018150809380
S113083005010CC03093000109C0343039F49091A3
S11308406B0481E0892780936B043DC00E941402ED
S1130850E0900501409106015091070100910101CA
S1130860109102012091030130910401E0910001F3
S1130870F0E0E959FE4F60818BEB94E00E940A0599
S1130880809100010E940003809100010E94D40124
S11308901AC080916B04882309F497CF0EC080910D
S11308A06B0481110AC092CF80916B04882309F4F0
S11308B09ECF383009F4B4CFC0CF80910501853084
S11308C008F4A8CFC3CF1F910F91EF9008951F9202
S11308D00F920FB60F9211242F933F934F935F9370
S11308E06F937F938F939F93AF93BF93EF93FF93F4
S11308F020916E0430916F0480916D048F5F80931A
S11309006D04833080F488B1887F88B948B181E070
S113091090E000906D0402C0880F991F0A94E2F7DA
S1130920842B88B911C010926D0488B1887F88B96E
S113093048B181E090E000906D0402C0880F991FD7
S11309400A94E2F7842B88B980916D048130C9F050
S113095018F0823039F137C086B1887790E0409141
S11309606E0450916F04407F969587959695879570
S113097096958795842B952B90936F0480936E04A2
S113098022C086B1887790E040916E0450916F0444
S11309904F70880F991F842B952B90936F0480932D
S11309A06E0411C046B1487780916E0490916F0433
S11309B0907F60E2469FA0011124842B952B909395
S11309C06F0480936E0480916C048F5F80936C0439
S11309D0833378F080916E0490916F04281739075F
S11309E041F4309375042093740410926C040E94B3
S11309F0C503FF91EF91BF91AF919F918F917F912B
S1130A006F915F914F913F912F910F900FBE0F9077
S1130A101F9018954F925F926F927F928F929F9240
S1130A20AF92BF92CF92DF92EF92FF920F931F93F8
S1130A30CF93DF9300D000D000D0CDB7DEB79E8334
S1130A408D83F62E48015901BA0180E090E00E949E
S1130A5021099B01AC0160E070E080E89FE30E9403
S1130A608008A50194010E9480080E94F2088B016D
S1130A70093E63E0160710F008EE13E08F2D90E0B6
S1130A80FC013197E930F10508F021C2E35CFF4F26
S1130A900C941C0A0115110509F0BEC118C20115F8
S1130AA0110509F08BC113C20115110509F04AC1E2
S1130AB00EC20115110509F016C109C2011511056F
S1130AC009F0B7C004C20115110509F098C0FFC1AF
S1130AD00115110509F061C0FAC10115110599F557
S1130AE0F6C10115110509F4F2C1E12CF12C4801FC
S1130AF0A12CB12CB70180E090E00E9421092B01C8
S1130B003C01C501B4010E9421099B01AC01C30150
S1130B10B2010E94800820E030E84FEF53E40E94C5
S1130B20AF090E94F208FB01E759FD4F8081AD81B6
S1130B30BE818D93BE83AD83BFEFEB1AFB0AE01633
S1130B40F106C1F6C4C1E12CF12C4801A12CB12C51
S1130B50B70180E090E00E9421092B013C01C5010E
S1130B60B4010E9421099B01AC01C301B2010E949E
S1130B70800820E030E04FE753E40E94AF090E9470
S1130B80F208ED81FE816193FE83ED83FFEFEF1A9E
S1130B90FF0AE016F106E1F69AC1E12CF12C4801B6
S1130BA0A12CB12CB70180E090E00E9421092B0117
S1130BB03C01C501B4010E9421099B01AC01C301A0
S1130BC0B2010E94800820E030E04FE753E40E9425
S1130BD0AF099B01AC0160E070E08FE793E40E94F1
S1130BE013080E94F208AD81BE816D93BE83AD836C
S1130BF0BFEFEB1AFB0AE016F106A1F668C19801F3
S1130C003695279580E090E04FEF8217930720F404
S1130C10ED81FE81108203C0AD81BE814C93ED81D4
S1130C20FE813196FE83ED8301968017910769F763
S1130C304EC16801D694C794E12CF12C2801612C93
S1130C40712CEC14FD04E8F4B70180E090E00E94FC
S1130C5021094B015C01C301B2010E9421099B01DE
S1130C60AC01C501B4010E94800820E030E04FE7E8
S1130C7053E40E94AF090E94F208AD81BE816C93D7
S1130C8024C0B70180E090E00E9421094B015C017F
S1130C90C301B2010E9421099B01AC01C501B40149
S1130CA00E94800820E030E04FE753E40E94AF093F
S1130CB09B01AC0160E070E08FE793E40E941308AD
S1130CC00E94F208ED81FE8160836D817E816F5FF9
S1130CD07F4F7E836D837FEFE71AF70AE016F106F4
S1130CE009F0AFCFF4C0E12CF12C4801A12CB12CB8
S1130CF0B70180E090E00E9421092B013C01C5016D
S1130D00B4010E9421099B01AC01C301B2010E94FC
S1130D10800820E030E04FE753E40E94AF090E94CE
S1130D20F208FB01E759FD4F8081880FAD81BE8138
S1130D308D93BE83AD83BFEFEB1AFB0AE016F10679
S1130D40B9F6C5C06801D694C794E12CF12C2801EA
S1130D50612C712CEC14FD0410F5B70180E090E0D7
S1130D600E9421094B015C01C301B2010E942109C7
S1130D709B01AC01C501B4010E94800820E030E869
S1130D804FEF53E40E94AF090E94F208FB01E759B8
S1130D90FD4F8081880FED81FE81808303C0AD818A
S1130DA0BE811C92ED81FE813196FE83ED83FFEFBF
S1130DB0EF1AFF0AE016F10669F689C0E12CF12C5E
S1130DC04801A12CB12CB70180E090E00E942109D8
S1130DD02B013C01C501B4010E9421099B01AC0116
S1130DE0C301B2010E94800820E030E04AE653E4E7
S1130DF00E94AF090E94F208FB01E158FE4F808176
S1130E00AD81BE818D93BE83AD83BFEFEB1AFB0A28
S1130E10E016F106C1F65BC0C12CD12C2801612C6F
S1130E20712C6E2D70E080E090E069837A838B836F
S1130E309C83B60180E090E00E9421094B015C0193
S1130E40C301B2010E9421099B01AC01C501B40197
S1130E500E94800820E030E84FEF53E40E94AF097D
S1130E604B015C0169817A818B819C810E942309F9
S1130E70A50194010E94AF090E94F2087B01E114CC
S1130E8072E0F70640F08FEFE81A81E0F80AE11407
S1130E9092E0F906C0F7C501B4010E94F208FB0113
S1130EA0E759FD4F8081982F9695F701E759FD4F3B
S1130EB080818695890FAD81BE818D93BE83AD837C
S1130EC0BFEFCB1ADB0AC016D10609F0B2CF2696C3
S1130ED00FB6F894DEBF0FBECDBFDF91CF911F9147
S1130EE00F91FF90EF90DF90CF90BF90AF909F90C5
S1130EF08F907F906F905F904F9008951F920F9204
S1130F000FB60F9211242F938F939F93EF93FF9318
S1130F108091C0002091C6008C71E0917804EF5F4D
S1130F20EF7190917704E91739F0E0937804F0E0D9
S1130F30E558FB4F208301C082E090917604892B11
S1130F4080937604FF91EF919F918F912F910F9051
S1130F500FBE0F901F9018951F920F920FB60F920D
S1130F6011248F939F93EF93FF9390917A04809130
S1130F707904981769F0E0917904EF5FEF71E093D9
S1130F807904F0E0E556FB4F80818093C60005C0EC
S1130F90E1ECF0E080818F7D8083FF91EF919F9160
S1130FA08F910F900FBE0F901F90189510927A0496
S1130FB010927904109278041092770499231CF407
S1130FC022E02093C00090789093C5008093C400E1
S1130FD088E98093C10086E08093C200089520913F
S1130FE07A042F5F2F71909179042917E1F3E22F8E
S1130FF0F0E0E556FB4F808320937A04E1ECF0E0C7
S11310008081806280830895CF93DF93EC0188818F
S1131010882331F021960E94EF0789918111FBCF3B
S1131020DF91CF9108955058BB27AA270E942B081F
S11310300C9475090E94670938F00E946E0920F02B
S113104039F49F3F19F426F40C9464090EF4E095E6
S1131050E7FB0C945E09E92F0E94860958F3BA173E
S1131060620773078407950720F079F4A6F50C94BA
S1131070A8090EF4E0950B2EBA2FA02D0B01B9018F
S113108090010C01CA01A0011124FF27591B99F0FA
S1131090593F50F4503E68F11A16F040A22F232F06
S11310A0342F4427585FF3CF469537952795A79556
S11310B0F0405395C9F77EF41F16BA0B620B730BFD
S11310C0840BBAF09150A1F0FF0FBB1F661F771F6E
S11310D0881FC2F70EC0BA0F621F731F841F48F423
S11310E0879577956795B795F7959E3F08F0B0CFAC
S11310F09395880F08F09927EE0F97958795089593
S11311000E9494080C9475090E946E0958F00E947C
S1131110670940F029F45F3F29F00C945E095111EE
S11311200C94A9090C9464090E94860968F3992314
S1131130B1F3552391F3951B550BBB27AA276217CF
S11311407307840738F09F5F5F4F220F331F441FDC
S1131150AA1FA9F335D00E2E3AF0E0E832D0915010
S11311605040E695001CCAF72BD0FE2F29D0660FFD
S1131170771F881FBB1F261737074807AB07B0E840
S113118009F0BB0B802DBF01FF2793585F4F3AF046
S11311909E3F510578F00C945E090C94A9095F3FB9
S11311A0E4F3983ED4F3869577956795B795F795CC
S11311B09F5FC9F7880F911D9695879597F90895B4
S11311C0E1E0660F771F881FBB1F62177307840750
S11311D0BA0720F0621B730B840BBA0BEE1F88F75F
S11311E0E09508950E948E0988F09F5798F0B92FD2
S11311F09927B751B0F0E1F0660F771F881F991F48
S11312001AF0BA95C9F714C0B13091F00E94A80938
S1131210B1E008950C94A809672F782F8827B85F48
S113122039F0B93FCCF3869577956795B395D9F79F
S11312303EF490958095709561957F4F8F4F9F4FA9
S11312400895E89409C097FB3EF4909580957095B5
S113125061957F4F8F4F9F4F9923A9F0F92F96E9FE
S1131260BB279395F695879577956795B795F11173
S1131270F8CFFAF4BB0F11F460FF1BC06F5F7F4F10
S11312808F4F9F4F16C0882311F096E911C0772322
S113129021F09EE8872F762F05C0662371F096E82B
S11312A0862F70E060E02AF09A95660F771F881FFA
S11312B0DAF7880F9695879597F9089597F99F67B8
S11312C080E870E060E008959FEF80EC08950024CA
S11312D00A941616170618060906089500240A9497
S11312E012161306140605060895092E0394000C1D
S11312F011F4882352F0BB0F40F4BF2B11F460FFAC
S113130004C06F5F7F4F8F4F9F4F089557FD9058D4
S1131310440F551F59F05F3F71F04795880F97FBB5
S1131320991F61F09F3F79F087950895121613066F
S11313301406551FF2CF4695F1DF08C0161617069E
S11313401806991FF1CF86957105610508940895D3
S1131350E894BB2766277727CB0197F908950E9465
S1131360C2090C9475090E94670938F00E946E093D
S113137020F0952311F00C945E090C946409112457
S11313800C94A9090E94860970F3959FC1F3950FE7
S113139050E0551F629FF001729FBB27F00DB11DF5
S11313A0639FAA27F00DB11DAA1F649F6627B00D85
S11313B0A11D661F829F2227B00DA11D621F739F6E
S11313C0B00DA11D621F839FA00D611D221F749F7C
S11313D03327A00D611D231F849F600D211D822FC3
S11313E0762F6A2F11249F5750409AF0F1F08823EA
S11313F04AF0EE0FFF1FBB1F661F771F881F915017
S11314005040A9F79E3F510580F00C945E090C945E
S1131410A9095F3FE4F3983ED4F3869577956795E1
S1131420B795F795E7959F5FC1F7FE2B880F911D40
S11314309695879597F90895EE0FFF1F0590F491FF
S1131440E02D0994FB01DC014150504048F001902B
S11314500D920020C9F701C01D9241505040E0F7A1
S11314600895BB274A3031F4992322F4BDE29095C4
S113147081959F4F0C943D0ABB27FB015527AA2752
S1131480880F991FAA1FA41710F0A41B839550510D
S1131490B9F7A05DAA3308F0A95DA193009779F785
S11314A0B111B1931192CB010C94560ADC01FC01E9
S11314B0672F71917723E1F7329704C07C916D9384
S11314C070836291AE17BF07C8F30895F894FFCFF5
S11314D00BBD37863701A100463A20000052616DEA
S11314E0702B0052616D702D00537175617265002F
S11314F0465752530044544D4600547269616E6716
S11315006C650020487A2C2057617665666F726D91
S11315103A20000A00202020202020202020202003
S1131520202020202000467265712E3A2000204899
S11315307A0047656E2E3A000906030A0805020A76
S1131540070401BD378637BD3706396F12833A1158
S11315501A1518181817171A191815191A1816150C
S1131560151718171617171A2023232523232726A0
S11315702A2E303233363B3A393C3C373028221855
S113158015110F0F0E0B0B0A0A0C0B0A080C080995
S11315900D09080C0B0703030A12294F7CAAD1F288
S11315A0FFEED3C493320005080E0D0D09010305A7
S11315B00506070907010103070B09090B0C0B0FAB
S11315C0100E0E1012151413141313161B1C1E1FC9
S11315D01E1F2325242825282C2F30323536363853
S11315E03A383B37383C3A3A38373532312E2C2B9F
S11315F02B292725252521221E1F1F1E1F1D1B1BCE
S11316001D1D201F1E1C191D1D201F1F201E1E25F1
S1131610222221202022242323211F2020201E1DBA
S11316201F211F1D1E201E1D1E20221F1E1B1C1FCE
S11316301E1E1C201F1E1C1B188081838486878904
S11316408A8C8E8F9192949597989A9B9D9EA0A236
S1131650A3A5A6A7A9AAACADAFB0B2B3B5B6B7B9A6
S1131660BABCBDBEC0C1C2C4C5C6C8C9CACBCDCE32
S1131670CFD0D2D3D4D5D6D7D9DADBDCDDDEDFE0E8
S1131680E1E2E3E4E5E6E7E8E9EAEAEBECEDEEEED5
S1131690EFF0F1F1F2F3F3F4F5F5F6F6F7F8F8F903
S11316A0F9FAFAFAFBFBFCFCFCFDFDFDFDFEFEFE77
S11316B0FEFEFFFFFFFFFFFFFFFFFFFFFFFFFFFF38
S11316C0FFFEFEFEFEFEFDFDFDFDFCFCFCFBFBFA49
S11316D0FAFAF9F9F8F8F7F6F6F5F5F4F3F3F2F1A6
S11316E0F1F0EFEEEEEDECEBEAEAE9E8E7E6E5E44B
S11316F0E3E2E1E0DFDEDDDCDBDAD9D7D6D5D4D333
S1131700D2D0CFCECDCBCAC9C8C6C5C4C2C1C0BE53
S1131710BDBCBAB9B7B6B5B3B2B0AFADACAAA9A7A0
S1131720A6A5A3A2A09E9D9B9A9897959492918F0B
S11317308E8C8A898786848381807E7C7B79787687
S1131740757371706E6D6B6A6867656462615F5D05
S11317505C5A595856555352504F4D4C4A49484675
S1131760454342413F3E3D3B3A39373635343231C9
S1131770302F2D2C2B2A2928262524232221201FF3
S11317801E1D1C1B1A1918171615151413121111E6
S1131790100F0E0E0D0C0C0B0A0A09090807070698
S11317A00605050504040303030202020201010104
S11317B00101000000000000000000000000000023
S11317C000010101010102020202030303040405F2
S11317D00505060607070809090A0A0B0C0C0D0E75
S11317E00E0F1011111213141515161718191A1BB0
S11317F01C1D1E1F2021222324252628292A2B2CA8
S11318002D2F30313234353637393A3B3D3E3F4166
S11318104243454648494A4C4D4F505253555658F9
S1131820595A5C5D5F6162646567686A6B6D6E706E
S10D18307173757678797B7C7E0075
S9030000FC
