S013000050726F6A6563745F4441432E7372656313
S11300000C9446000C9463000C9463000C946300FD
S11300100C9463000C9463000C9463000C946300D0
S11300200C9463000C948C030C9463000C94630094
S11300300C9463000C9463000C9463000C946300B0
S11300400C9408010C9463000C940D080C943B0868
S11300500C9463000C9463000C9463000C94630090
S11300600C9463000C9463009E049A049504900419
S11300708B04860481047C047704E406F006F80605
S113008000070807100718072407300711241FBEAC
S1130090CFEFD8E0DEBFCDBF14E0A0E0B1E0EEEEDC
S11300A0F5E102C005900D92A437B107D9F728E015
S11300B0A4E7B4E001C01D92AE3AB207E1F70E9492
S11300C036020C94F50A0C9400005B9A85E08A953C
S11300D0F1F700005B980895CF93C82F662311F0C1
S11300E05A9A01C05A98549A559A569A579A5F98B0
S11300F05E985D985C98CC230CF45F9AC6FD5E9A7A
S1130100C5FD5D9AC4FD5C9A0E9465005F985E9887
S11301105D985C98C3FD5F9AC2FD5E9AC1FD5D9ACD
S1130120C0FD5C9A0E9465005C9A5D9A5E9A5F9A33
S113013087EB9BE00197F1F700C00000CF91089591
S113014060E00E946C000895611104C080580E9410
S1130150A000089580540E94A000089581E00E94A8
S1130160A000089561E00E946C000895CF93DF938E
S1130170EC012196FC018081882329F00E94B200C1
S113018089918111FBCFDF91CF910895CF93C82F2F
S1130190529A559A539A549A559A569A579A8FEF57
S11301A099EF0197F1F700C000005D9A5C9A0E94F4
S11301B065008FE19EE40197F1F700C000000E9402
S11301C065008FEF90E00197F1F700C000000E94F6
S11301D065008FEF90E00197F1F700C000005C9894
S11301E00E9465008FEF90E00197F1F700C00000D6
S11301F088E20E94A00088E00E94A0000E94AE0055
S113020086E00E94A0008C2F0E94A000CF91089548
S11302101F920F920FB60F9211242F933F938F9337
S11302209F93EF93FF9320917B0430917C04809102
S11302307D0490917E0401972817390738F42F5FC5
S11302403F4F30937C0420937B0408C010927C04BD
S113025010927B041092240110922401E0917B04FB
S1130260F0917C04EA53FB4F808185B9FF91EF91B3
S11302709F918F913F912F910F900FBE0F901F90E0
S11302801895CF92DF92EF92FF92CF93609107017E
S11302907091080180E090E00E94B0099B01AC01DC
S11302A060E070E080E89FE30E940F092091020162
S11302B03091030140910401509105010E940F09FE
S11302C00E94810970937E0460937D04693E7340AB
S11302D0E8F1C0917404C330D8F5CF5F01C0C82FD2
S11302E0EC2FF0E0EE0FFF1FEE0FFF1FE15EFE4F5D
S11302F0C080D180E280F380609107017091080191
S113030080E090E00E94B0099B01AC0160E070E0E5
S113031080E89FE30E940F09A70196010E940F093C
S11303200E948109693E83E0780718F5C09374043C
S1130330C0920201D0920301E0920401F0920501FF
S113034070937E0460937D0421E003C020E001C02B
S113035020E080917D0490917E048F3F910508F008
S113036063C0C0917404CC2309F466C02223B1F0A5
S11303705BC081E08C0F843009F0B1CFC09374046A
S1130380C0920201D0920301E0920401F0920501AF
S113039070937E0460937D0421E0DBCFC150EC2F89
S11303A0F0E0EE0FFF1FEE0FFF1FE15EFE4FC08077
S11303B0D180E280F380609107017091080180E0B0
S11303C090E00E94B0099B01AC0160E070E080E81D
S11303D09FE30E940F09A70196010E940F090E9442
S11303E081096F3F710578F0C0937404C0920201D3
S11303F0D0920301E0920401F092050170937E040F
S113040060937D0411C0C111C9CF10927404C092CD
S11304100201D0920301E0920401F092050170936D
S11304207E0460937D0408C080917404813059F087
S113043018F0823079F014C085B5897F85BD85B503
S1130440816085BD0DC085B58A7F85BD85B5826017
S113045085BD06C085B58B7F85BD85B5836085BDAB
S1130460CF91FF90EF90DF90CF9008950E944101CB
S11304708CE00E94C60087E690E00E9465084091E7
S1130480060160910701709108018BE00E948207C8
S11304908FEF8AB984B987E087B9E090060140916B
S11304A0070150910801009102011091030120916C
S11304B004013091050161E086EC94E00E942F0470
S11304C085B5897F85BD85B5816085BDEEE6F0E0A3
S11304D0808181608083E1EBF0E080818C7F808388
S11304E0808184608083E0E7F0E0808181608083A4
S11304F07894FFCFEF920F931F93CF9380917F0453
S113050090918004009709F4E8C020917604269520
S1130510269531E0320F80FDEDC020E001C02C2F84
S1130520C1E0C20F9695879580FFF9CF9093800420
S113053080937F04CC2309F4D6C02B7F233009F0A9
S11305406EC0DFC0C0E0832F90E02091070130919E
S11305500801280F391F213D374058F42091070125
S113056030910801820F931F909308018093070133
S113057059C02091070130910801820F931F813DDA
S1130580974008F44FC080ED97E090930801809362
S1130590070148C0C83009F045C040910701509197
S11305A00801832F90E09A01281B390B243631056A
S11305B060F02091070130910801A901481B590BF3
S11305C050930801409307013AC0209107013091EC
S11305D00801A901481B590B4436510580F584E6EE
S11305E090E0909308018093070129C0C1110BC0CA
S11305F080910601853008F07BC0809106018F5FF1
S11306008093060175C0C83069F480910601823078
S1130610B0F08091060181508093060110C0C09310
S113062001010DC0C43059F480910001843079F186
S11306309091750481E089278093750428C00E94F5
S11306404101E09006014091070150910801009199
S11306500201109103012091040130910501609180
S1130660010186EC94E00E942F0440910601609100
S1130670070170910801809101010E948207609135
S1130680070170910801809101010E944007809147
S11306907504882349F061E08EE00E94A4008CE197
S11306A091E00E94B60008C061E08EE00E94A400C0
S11306B08AE691E00E94B600809100018C1308C084
S11306C080917604803F18F58F5F809376041FC075
S11306D010927604C09300011AC0109276048FEF32
S11306E08093000114C080917504811181CF2BCFB8
S11306F0C0E0A5CF80917504882309F423CFC0E01E
S113070075CF80917504882309F444CF6FCFCF91BE
S11307101F910F91EF9008951F920F920FB60F92B1
S113072011242F933F934F935F936F937F938F93F2
S11307309F93AF93BF93EF93FF93209179043091EC
S11307407A04809178048F5F80937804833080F4F6
S113075088B1887F88B948B181E090E0009078043E
S113076002C0880F991F0A94E2F7842B88B911C03C
S11307701092780488B1887F88B948B181E090E00C
S11307800090780402C0880F991F0A94E2F7842B22
S113079088B9809178048130C9F018F0823039F139
S11307A037C086B1887790E04091790450917A04FB
S11307B0407F969587959695879596958795842BF2
S11307C0952B90937A048093790422C086B188771C
S11307D090E04091790450917A044F70880F991FEA
S11307E0842B952B90937A048093790411C046B19D
S11307F048778091790490917A04907F60E2469FD3
S1130800A0011124842B952B90937A04809379046E
S1130810809177048F5F80937704833378F080919D
S1130820790490917A042817390741F430938004AD
S113083020937F04109277040E947A02FF91EF9133
S1130840BF91AF919F918F917F916F915F914F91E4
S11308503F912F910F900FBE0F901F9018954F92BC
S11308605F926F927F928F929F92AF92BF92CF923C
S1130870DF92EF92FF920F931F93CF93DF9300D0F9
S113088000D000D0CDB7DEB79E838D8348015901D7
S1130890C62ED12C61E0C61AD108BA0180E090E0DE
S11308A00E94B0099B01AC0160E070E080E89FE326
S11308B00E940F09A50194010E940F090E94810959
S11308C08B01093E73E0170710F008EE13E0F60100
S11308D0E759FB4FE0818E2F90E0FC013197E9301E
S11308E0F10508F023C2EC5CFF4F0C94AB0A011530
S11308F0110509F0C0C11AC20115110509F08DC115
S113090015C20115110509F04CC110C201151105DC
S113091009F018C10BC20115110509F0B7C006C2D0
S11309200115110509F098C001C20115110509F05E
S113093061C0FCC10115110599F5F8C10115110536
S113094009F4F4C1E12CF12C4801A12CB12CB7011C
S113095080E090E00E94B0092B013C01C501B40184
S11309600E94B0099B01AC01C301B2010E940F09AE
S113097020E030E84FEF53E40E943E0A0E948109D0
S1130980FB01E759FD4F8081AD81BE818D93BE830C
S1130990AD83BFEFEB1AFB0AE016F106C1F6C6C140
S11309A0E12CF12C4801A12CB12CB70180E090E09E
S11309B00E94B0092B013C01C501B4010E94B00999
S11309C09B01AC01C301B2010E940F0920E030E099
S11309D04FE753E40E943E0A0E948109ED81FE81A3
S11309E06193FE83ED83FFEFEF1AFF0AE016F10631
S11309F0E1F69CC1E12CF12C4801A12CB12CB701EA
S1130A0080E090E00E94B0092B013C01C501B401D3
S1130A100E94B0099B01AC01C301B2010E940F09FD
S1130A2020E030E04FE753E40E943E0A9B01AC0112
S1130A3060E070E08FE793E40E94A2080E948109BD
S1130A40AD81BE816D93BE83AD83BFEFEB1AFB0A0C
S1130A50E016F106A1F66AC198013695279580E063
S1130A6090E04FEF8217930720F4ED81FE8110820E
S1130A7003C0AD81BE814C93ED81FE813196FE832E
S1130A80ED8301968017910769F750C16801D694E8
S1130A90C794E12CF12C2801612C712CCE14DF04B5
S1130AA0F0F0B70180E090E00E94B0094B015C01D6
S1130AB0C301B2010E94B0099B01AC01C501B4019C
S1130AC00E940F0920E030E84EE753E40E943E0AFA
S1130AD00E948109660FAD81BE816C9325C0B70168
S1130AE080E090E00E94B0094B015C01C301B201B7
S1130AF00E94B0099B01AC01C501B4010E940F0919
S1130B0020E030E04FE753E40E943E0A9B01AC0131
S1130B1060E070E08FE793E40E94A2080E948109DC
S1130B20660FED81FE8160836D817E816F5F7F4FF3
S1130B307E836D837FEFE71AF70AE016F10609F06A
S1130B40ADCFF4C0E12CF12C4801A12CB12CB7019C
S1130B5080E090E00E94B0092B013C01C501B40182
S1130B600E94B0099B01AC01C301B2010E940F09AC
S1130B7020E030E04FE753E40E943E0A0E948109DE
S1130B80FB01E759FD4F8081880FAD81BE818D93B4
S1130B90BE83AD83BFEFEB1AFB0AE016F106B9F68C
S1130BA0C5C06801D694C794E12CF12C2801612CAE
S1130BB0712CEC14FD0410F5B70180E090E00E9464
S1130BC0B0094B015C01C301B2010E94B0099B0151
S1130BD0AC01C501B4010E940F0920E030E84FEFD9
S1130BE053E40E943E0A0E948109FB01E759FD4F2C
S1130BF08081880FED81FE81808303C0AD81BE8139
S1130C001C92ED81FE813196FE83ED83FFEFEF1A96
S1130C10FF0AE016F10669F689C0E12CF12C4801BF
S1130C20A12CB12CB70180E090E00E94B0092B0107
S1130C303C01C501B4010E94B0099B01AC01C30190
S1130C40B2010E940F0920E030E04AE653E40E941A
S1130C503E0A0E948109FB01E158FE4F8081AD816B
S1130C60BE818D93BE83AD83BFEFEB1AFB0AE01602
S1130C70F106C1F65BC0C12CD12C2801612C712C6A
S1130C806E2D70E080E090E069837A838B839C838F
S1130C90B60180E090E00E94B0094B015C01C30101
S1130CA0B2010E94B0099B01AC01C501B4010E94CC
S1130CB00F0920E030E84FEF53E40E943E0A4B0155
S1130CC05C0169817A818B819C810E94B209A501B2
S1130CD094010E943E0A0E9481097B01E11472E0A2
S1130CE0F70640F08FEFE81A81E0F80AE11492E089
S1130CF0F906C0F7C501B4010E948109FB01E75957
S1130D00FD4F8081982F9695F701E759FD4F80811B
S1130D108695890FAD81BE818D93BE83AD83BFEF70
S1130D20CB1ADB0AC016D10609F0B2CF26960FB64D
S1130D30F894DEBF0FBECDBFDF91CF911F910F910D
S1130D40FF90EF90DF90CF90BF90AF909F908F90E7
S1130D507F906F905F904F900895CF93DF93CDB7BE
S1130D60DEB763970FB6F894DEBF0FBECDBF25E0A4
S1130D70E2E3F1E0DE01119601900D922A95E1F78C
S1130D8025E0E7E3F1E0DE01169601900D922A9545
S1130D90E1F729E0ECE3F1E0DE011B9601900D920E
S1130DA02A95E1F7E62FF0E0E859FB4FE0814E2F5A
S1130DB050E0FA013197E930F10508F058C0DC0140
S1130DC0E35CFF4F0C94AB0A23E539E611963C93A0
S1130DD02E932EE630E013963C932E93129747C041
S1130DE025E0E9E0F1E001900D922A95E1F73FC09A
S1130DF026E0E0E1F1E001900D922A95E1F737C099
S1130E0027E0EBE2F1E001900D922A95E1F72FC083
S1130E1048E050E0BE01655F7F4F0E94B10A27C0E1
S1130E2046E050E0BE016F5F7F4F0E94B10A1FC0D1
S1130E3028E437E511963C932E9322E533E5139687
S1130E403C932E93129713C025E433E411963C93FC
S1130E502E9327E430E013963C932E93129707C009
S1130E6044E050E0BE016A5F7F4F0E94B10A63967E
S1130E700FB6F894DEBF0FBECDBFDF91CF910895BA
S1130E80CF92DF92FF920F931F93CF93DF93CDB74F
S1130E90DEB72A970FB6F894DEBF0FBECDBFF82E8B
S1130EA06B018E010F5F1F4F8AE0F80111928A9542
S1130EB0E9F787E191E00E9493084AE0B801C6018E
S1130EC00E94C00AC8010E94930885E491E00E9430
S1130ED093086F2DC8010E94AD06C8010E949308B3
S1130EE085E591E00E9493082A960FB6F894DEBF38
S1130EF00FBECDBFDF91CF911F910F91FF90DF9077
S1130F00CF900895EF92FF920F931F93CF93DF93A7
S1130F10CDB7DEB764970FB6F894DEBF0FBECDBF72
S1130F20182F7B01042FCE0101962AE0FC011192B7
S1130F302A95E9F726E0E9E7F1E0DE011B96019046
S1130F400D922A95E1F720E23DE43A8B298B2AE3BE
S1130F5030E03C8B2B8B612F0E94AD061F3F09F4C0
S1130F604FC060E080E00E94A400183051F1812F4E
S1130F708B7F39F1CE010B960E94B6008CE591E08F
S1130F800E94B60060E086E00E94A400CE010196B3
S1130F900E94B600E12FF0E0E859FB4F80818930D0
S1130FA081F4CE0141960E94B6004AE0BE016F5F13
S1130FB07F4F802F90E00E94C00ACE0101960E94CC
S1130FC0B60061E080E00E94A40087E591E00E9401
S1130FD0B60061E080E00E94A4008DE691E00E94EA
S1130FE0B6004AE0BE016F5F7F4FC7010E94C00A8E
S1130FF0CE0101960E94B60085E791E00E94B600FA
S113100064960FB6F894DEBF0FBECDBFDF91CF91CB
S11310101F910F91FF90EF9008951F920F920FB6BA
S11310200F9211242F938F939F93EF93FF938091AB
S1131030C0002091C6008C71E0918304EF5FEF71D2
S113104090918204E91739F0E0938304F0E0EA57C1
S1131050FB4F208301C082E090918104892B80930F
S11310608104FF91EF919F918F912F910F900FBE6B
S11310700F901F9018951F920F920FB60F92112484
S11310808F939F93EF93FF939091850480918404B1
S1131090981769F0E0918404EF5FEF71E0938404A2
S11310A0F0E0EA55FB4F80818093C60005C0E1EC77
S11310B0F0E080818F7D8083FF91EF919F918F91EC
S11310C00F900FBE0F901F901895109285041092E8
S11310D08404109283041092820499231CF422E065
S11310E02093C00090789093C5008093C40088E951
S11310F08093C10086E08093C20008952091850406
S11311002F5F2F71909184042917E1F3E22FF0E00F
S1131110EA55FB4F808320938504E1ECF0E0808165
S1131120806280830895CF93DF93EC0188818823C4
S113113031F021960E947E0889918111FBCFDF91C5
S1131140CF9108955058BB27AA270E94BA080C943F
S1131150040A0E94F60938F00E94FD0920F039F4CF
S11311609F3F19F426F40C94F3090EF4E095E7FB81
S11311700C94ED09E92F0E94150A58F3BA17620777
S113118073078407950720F079F4A6F50C94370AC1
S11311900EF4E0950B2EBA2FA02D0B01B90190018E
S11311A00C01CA01A0011124FF27591B99F0593FD2
S11311B050F4503E68F11A16F040A22F232F342F1A
S11311C04427585FF3CF469537952795A795F04068
S11311D05395C9F77EF41F16BA0B620B730B840B7D
S11311E0BAF09150A1F0FF0FBB1F661F771F881F35
S11311F0C2F70EC0BA0F621F731F841F48F487958D
S113120077956795B795F7959E3F08F0B0CF93957E
S1131210880F08F09927EE0F9795879508950E94F7
S113122023090C94040A0E94FD0958F00E94F6094F
S113123040F029F45F3F29F00C94ED0951110C940E
S1131240380A0C94F3090E94150A68F39923B1F340
S1131250552391F3951B550BBB27AA2762177307D8
S1131260840738F09F5F5F4F220F331F441FAA1F6C
S1131270A9F335D00E2E3AF0E0E832D09150504028
S1131280E695001CCAF72BD0FE2F29D0660F771FD6
S1131290881FBB1F261737074807AB07B0E809F0BC
S11312A0BB0B802DBF01FF2793585F4F3AF09E3F41
S11312B0510578F00C94ED090C94380A5F3FE4F37F
S11312C0983ED4F3869577956795B795F7959F5F84
S11312D0C9F7880F911D9695879597F90895E1E0D0
S11312E0660F771F881FBB1F621773078407BA072F
S11312F020F0621B730B840BBA0BEE1F88F7E0958A
S113130008950E941D0A88F09F5798F0B92F9927D5
S1131310B751B0F0E1F0660F771F881F991F1AF0DC
S1131320BA95C9F714C0B13091F00E94370AB1E000
S113133008950C94370A672F782F8827B85F39F0FF
S1131340B93FCCF3869577956795B395D9F73EF475
S113135090958095709561957F4F8F4F9F4F08951D
S1131360E89409C097FB3EF490958095709561953B
S11313707F4F8F4F9F4F9923A9F0F92F96E9BB27F1
S11313809395F695879577956795B795F111F8CF6D
S1131390FAF4BB0F11F460FF1BC06F5F7F4F8F4FD8
S11313A09F4F16C0882311F096E911C0772321F0CE
S11313B09EE8872F762F05C0662371F096E8862F66
S11313C070E060E02AF09A95660F771F881FDAF7BD
S11313D0880F9695879597F9089597F99F6780E800
S11313E070E060E008959FEF80EC089500240A9473
S11313F01616170618060906089500240A941216EC
S11314001306140605060895092E0394000C11F41E
S1131410882352F0BB0F40F4BF2B11F460FF04C0CB
S11314206F5F7F4F8F4F9F4F089557FD9058440F24
S1131430551F59F05F3F71F04795880F97FB991F2F
S113144061F09F3F79F087950895121613061406EC
S1131450551FF2CF4695F1DF08C016161706180679
S1131460991FF1CF86957105610508940895E89454
S1131470BB2766277727CB0197F908950E94510A65
S11314800C94040A0E94F60938F00E94FD0920F029
S1131490952311F00C94ED090C94F30911240C9488
S11314A0380A0E94150A70F3959FC1F3950F50E016
S11314B0551F629FF001729FBB27F00DB11D639F02
S11314C0AA27F00DB11DAA1F649F6627B00DA11DA8
S11314D0661F829F2227B00DA11D621F739FB00D4E
S11314E0A11D621F839FA00D611D221F749F3327BE
S11314F0A00D611D231F849F600D211D822F762F57
S11315006A2F11249F5750409AF0F1F088234AF033
S1131510EE0FFF1FBB1F661F771F881F915050409F
S1131520A9F79E3F510580F00C94ED090C94380AFC
S11315305F3FE4F3983ED4F3869577956795B79526
S1131540F795E7959F5FC1F7FE2B880F911D969540
S1131550879597F90895EE0FFF1F0590F491E02DFC
S11315600994FB01DC014150504048F001900D9278
S11315700020C9F701C01D9241505040E0F7089582
S1131580BB274A3031F4992322F4BDE2909581952A
S11315909F4F0C94CC0ABB27FB015527AA27880F21
S11315A0991FAA1FA41710F0A41B83955051B9F7D3
S11315B0A05DAA3308F0A95DA193009779F7B11152
S11315C0B1931192CB010C94E50ADC01FC01672F65
S11315D071917723E1F7329704C07C916D93708306
S11115E06291AE17BF07C8F30895F894FFCFC9
S11315EEFF0BBD37863701A10052616D702B0000D1
S11315FE52616D702D0000463A200000204600BD59
S113160E378637BD3706396F12833A537175617257
S113161E6500465752530044544D46005472696156
S113162E6E676C650020487A2C2057617665666F6C
S113163E726D3A20000A0020202020202020202035
S113164E20202020202020202020202000467265EB
S113165E712E3A200020487A0047656E2E3A00110A
S113166E1A1518181817171A191815191A181615ED
S113167E151718171617171A202323252323272681
S113168E2A2E303233363B3A393C3C373028221836
S113169E15110F0F0E0B0B0A0A0C0B0A080C080976
S11316AE0D09080C0B0703030A12294F7CAAD1F269
S11316BEFFEED3C493320005080E0D0D0901030588
S11316CE0506070907010103070B09090B0C0B0F8C
S11316DE100E0E1012151413141313161B1C1E1FAA
S11316EE1E1F2325242825282C2F30323536363834
S11316FE3A383B37383C3A3A38373532312E2C2B80
S113170E2B292725252521221E1F1F1E1F1D1B1BAE
S113171E1D1D201F1E1C191D1D201F1F201E1E25D2
S113172E222221202022242323211F2020201E1D9B
S113173E1F211F1D1E201E1D1E20221F1E1B1C1FAF
S113174E1E1E1C201F1E1C1B1880818384868789E5
S113175E8A8C8E8F9192949597989A9B9D9EA0A217
S113176EA3A5A6A7A9AAACADAFB0B2B3B5B6B7B987
S113177EBABCBDBEC0C1C2C4C5C6C8C9CACBCDCE13
S113178ECFD0D2D3D4D5D6D7D9DADBDCDDDEDFE0C9
S113179EE1E2E3E4E5E6E7E8E9EAEAEBECEDEEEEB6
S11317AEEFF0F1F1F2F3F3F4F5F5F6F6F7F8F8F9E4
S11317BEF9FAFAFAFBFBFCFCFCFDFDFDFDFEFEFE58
S11317CEFEFEFFFFFFFFFFFFFFFFFFFFFFFFFFFF19
S11317DEFFFEFEFEFEFEFDFDFDFDFCFCFCFBFBFA2A
S11317EEFAFAF9F9F8F8F7F6F6F5F5F4F3F3F2F187
S11317FEF1F0EFEEEEEDECEBEAEAE9E8E7E6E5E42C
S113180EE3E2E1E0DFDEDDDCDBDAD9D7D6D5D4D313
S113181ED2D0CFCECDCBCAC9C8C6C5C4C2C1C0BE34
S113182EBDBCBAB9B7B6B5B3B2B0AFADACAAA9A781
S113183EA6A5A3A2A09E9D9B9A9897959492918FEC
S113184E8E8C8A898786848381807E7C7B79787668
S113185E757371706E6D6B6A6867656462615F5DE6
S113186E5C5A595856555352504F4D4C4A49484656
S113187E454342413F3E3D3B3A39373635343231AA
S113188E302F2D2C2B2A2928262524232221201FD4
S113189E1E1D1C1B1A1918171615151413121111C7
S11318AE100F0E0E0D0C0C0B0A0A09090807070679
S11318BE06050505040403030302020202010101E5
S11318CE0101000000000000000000000000000004
S11318DE00010101010102020202030303040405D3
S11318EE0505060607070809090A0A0B0C0C0D0E56
S11318FE0E0F1011111213141515161718191A1B91
S113190E1C1D1E1F2021222324252628292A2B2C88
S113191E2D2F30313234353637393A3B3D3E3F4147
S113192E4243454648494A4C4D4F505253555658DA
S113193E595A5C5D5F6162646567686A6B6D6E704F
S113194E7173757678797B7C7E0906030A08050225
S107195E0A0704016B
S9030000FC
