S00D0000536E616B652E7372656325
S11300000C9434000C9451000C9451000C94510045
S11300100C9451000C9451000C9451000C94510018
S11300200C9451000C9451000C9451000C94510008
S11300300C9451000C9489000C9451000C945100C0
S11300400C9451000C9451000C9451000C945100E8
S11300500C9451000C9451000C9451000C945100D8
S11300600C9451000C94510011241FBECFEFD8E022
S1130070DEBFCDBF11E0A0E0B1E0E2E8F2E002C0F3
S113008005900D92AA30B107D9F721E0AAE0B1E0BA
S113009001C01D92AB30B207E1F70E9478000C94C6
S11300A03F010C940000FC01408121E030E002C0DB
S11300B0220F331F6A95E2F7242B20830895FC0155
S11300C0908121E030E002C0220F331F6A95E2F7ED
S11300D02095292320830895FC01408121E030E00C
S11300E002C0220F331F6A95E2F7242B2083089560
S11300F00E94BC00E1E8F0E080818B7F80838081F6
S113010083608083EFE6F0E080818160808378946F
S1130110FFCF1F920F920FB60F9211242F933F938C
S11301204F935F936F937F938F939F93AF93BF93FB
S1130130EF93FF9380910A01853038F48F5F8093A9
S11301400A0160E00E94CC0006C010920A0160E03F
S113015080E00E94CC00FF91EF91BF91AF919F91FD
S11301608F917F916F915F914F913F912F910F905C
S11301700FBE0F901F90189564E08AE290E00E94F1
S1130180530067E08AE290E00E94530060E084E25A
S113019090E00E94530008951F93CF93DF93E82FBC
S11301A0F0E0EC5FFE4F1081E62FF0E0E050FF4FEF
S11301B0D08164E08BE290E00E945F0067E08BE214
S11301C090E00E945F0060E085E290E00E945F00A2
S11301D085E08A95F1F70000C8E010FF06C060E0F2
S11301E085E290E00E946C0005C060E085E290E04A
S11301F00E945F0085E08A95F1F7000067E08BE2DA
S113020090E00E946C0085E08A95F1F7000067E0B9
S11302108BE290E00E945F001695C150F1F6C8E0B1
S1130220D0FF06C060E085E290E00E946C0005C04B
S113023060E085E290E00E945F0085E08A95F1F736
S1130240000067E08BE290E00E946C0085E08A95F4
S1130250F1F7000067E08BE290E00E945F00D69522
S1130260C150F1F664E08BE290E00E946C0085E0FE
S11302708A95F1F70000DF91CF911F910895F894CA
S1050280FFCFAA
S10D028210204080DFEFF7FB7FBF80
S9030000FC
