S01400004B6E696768745F72696465722E7372656336
S11300000C9434000C943E000C943E000C943E007E
S11300100C943E000C943E000C943E000C943E0064
S11300200C943E000C943E000C943E000C943E0054
S11300300C943E000C943E000C943E000C943E0044
S11300400C943E000C943E000C943E000C943E0034
S11300500C943E000C943E000C943E000C943E0024
S11300600C943E000C943E0011241FBECFEFD8E048
S1130070DEBFCDBF0E9440000C9497000C9400009A
S11300808FEF87B988B984B184B9589A409821E030
S113009030E080E090E061E070E048991BC02115F9
S11300A0310509F441C0E8B1AB01082E02C0440F88
S11300B0551F0A94E2F74E2748B9E8B10196AB01FF
S11300C0082E02C0440F551F0A94E2F74E2748B980
S11300D049B11AC0489918C021153105A9F4E8B1ED
S11300E0AB01082E02C0440F551F0A94E2F74E27B5
S11300F048B9E8B10197AB01082E02C0440F551F5F
S11301000A94E2F74E2748B9AC014B7F452B11F412
S113011041E024275FEFE1EE44E05150E0404040ED
S1130120E1F700C00000B9CF489BD9CFEDCFF894D8
S1050130FFCFFB
S9030000FC
